:020000040000FA
:0600000000F086EF1DF088
:103A8400FFFFFFFF536E535052141200FFFFFFFF5E
:103A9400536E535052101200FFFFFFFF546E5250EA
:103AA400545C1200FFFFFFFF536E53505224120068
:103AB400FFFFFFFF536E535052181200FFFFFFFF2A
:103AC400536E53505202F3501200FFFFFFFF576E24
:103AD40056C052F05750F0EC1DF01200FFFFFFFFEC
:103AE400556E54C052F0555043EC1DF0FF0A1200BD
:103AF400FFFFFFFF576E56C052F057503AEC1EF0CE
:103B0400586E58501200FFFF230EF66E3C0EF76EEF
:103B1400000EF86E00EE01F010EE51F00900F5CF42
:103B2400EEFFE550E150FAE1000EF86E0001E1EF1E
:103B34001EF0FFFF586E020E566E585068EC1DF0D2
:103B44000009D8A4A8EF1DF0ABEF1DF0FFFFAFEF05
:103B54001DF0FFFF000EB1EF1DF0FFFF010EFFFF90
:103B64001200FFFFFFFF526E5B0E5260BCEF1DF0B0
:103B7400BFEF1DF0FFFFCBEF1DF0FFFF400E5264BF
:103B8400C6EF1DF0C9EF1DF0FFFFCBEF1DF0FFFFE7
:103B9400528AFFFF52501200FFFFFFFF060EC16E54
:103BA400000E926E000E896E000E806E9368000EF9
:103BB4008A6E81689468000E8B6E000E826E000E11
:103BC400956E000E8C6E000E836E000E966E000EC7
:103BD4008D6E000E846E1200FFFFFFFFFFFF536E19
:103BE400080E546E000E556EFFFFD89053345534B2
:103BF400556ED89053365250555CD8A004EF1EF041
:103C040007EF1EF0FFFF0AEF1EF0FFFF5250555E54
:0E3C1400FFFF542EF6EF1DF055501200FFFF7B
:103C2300F888F840F8F8B8A8E8A8A8F8E020F8E879
:103C3300A8B8F8A8B88080F8F8A8F8E0A0F8F8A029
:103C4300F8F82838F888883828F8F8A8A8F8A0A041
:103C53002070202020205020501020407020702001
:103C6300402040204050605060506080F8805050A9
:103C730050FFFF536E000E556E5250D8B444EF1EE2
:103C8300F047EF1EF0FFFF71EF1EF0FFFF010E5430
:103C93006E50EF1EF0FFFFD8905236542AFFFF52AA
:103CA300AE56EF1EF059EF1EF0FFFF4CEF1EF0FF74
:103CB300FFFFFFD89055365250535CD8A064EF1ED7
:103CC300F067EF1EF0FFFF6BEF1EF0FFFF52505344
:103CD3005E5580FFFFD8905232542E5AEF1EF0FFEC
:103CE300FF55501200FFFFFFFF596E000E5C6EFF81
:103CF300FF5504D8A480EF1EF083EF1EF0FFFF886A
:103D0300EF1EF0FFFF8986899A8BEF1EF0FFFF8974
:103D130096898AFFFF5950B4EC1DF0730AD8B49505
:103D2300EF1EF098EF1EF0FFFFB0EF1EF0FFFF5302
:103D330050030D010E566E000E576EF3505626F4C7
:103D43005057225C505624D96E000E5720DA6EDF8E
:103D530050586E58505A6E5B6AC6EF1EF0FFFF5301
:103D630050030D310E566E000E576EF3505626F467
:103D73005057225C505624D96E000E5720DA6EDF5E
:103D830050586E58505A6E5B6AFFFF5AC08CFF5CE6
:103D93005054248D6E050E566EDF0EFFFFE82EFD88
:103DA300D7562EFBD75C2A020E5C64DBEF1EF0DED7
:103DB300EF1EF0FFFF79EF1EF0FFFF1200FFFFFF82
:103DC300FFCFEC1DF0FFFF81380F0B646E81500FA6
:103DD3000B656E82500F0B636E000E616E52EF1F08
:103DE300F0FFFF6550645CD8A0FAEF1EF0FDEF1EF4
:103DF300F0FFFF0BEF1FF0FFFF64C059F065C05ADF
:103E0300F063506AEC1FF05D6E5D505E6E5F6A1783
:103E1300EF1FF0FFFF65C059F064C05AF063506AAA
:103E2300EC1FF05D6E5D505E6E5F6AFFFF5EC0600B
:103E3300F0000E626E6550645CD8B023EF1FF0266D
:103E4300EF1FF0FFFF32EF1FF0FFFF010E536E0075
:103E53000E546E010E556E730E75EC1EF0030E625A
:103E630026FFFF60C053F062C054F0010E556E6E22
:103E73000E75EC1EF05AEF1FF0FFFF64C059F0659A
:103E8300C05AF063506AEC1FF0606E60C053F000DC
:103E93000E546E010E556E6E0E75EC1EF05AEF1F2A
:103EA300F0FFFF6350010AD8B4F2EF1EF03EEF1F9C
:103EB300F0FFFF612AC70E616462EF1FF065EF1F19
:103EC300F0FFFF52EF1FF0FFFFE4EF1EF001EF00E2
:103ED300F0FFFF5B6ECDEF1FF0FFFF5AC052F059AA
:103EE3005055EC1DF0FDEF1FF0FFFF5AC052F05983
:103EF300504FEC1DF0FDEF1FF0FFFF5AC052F05979
:103F03005061EC1DF0FDEF1FF0FFFF5AC056F05952
:103F1300507BEC1DF0FDEF1FF0FFFF5AC056F05928
:103F23005068EC1DF0FDEF1FF0FFFF5AC052F0592F
:103F33005043EC1DF0FDEF1FF0FFFF5AC052F05944
:103F43005049EC1DF0FDEF1FF0FFFF5AC054F0592C
:103F53005071EC1DF0FDEF1FF0FFFF5AC052F059F6
:103F6300505BEC1DF0FDEF1FF0FFFF59509BEC1D64
:103F7300F0FDEF1FF0FFFF020E5918D8B4C4EF1F76
:103F8300F0C8EF1FF0FFFF010ECAEF1FF0FFFF00A5
:103F93000EFFFFFDEF1FF0FFFF5B50000AD8B46E6A
:103FA300EF1FF0010AD8B476EF1FF0030AD8B47EEE
:103FB300EF1FF0010AD8B486EF1FF0070AD8B48EBA
:103FC300EF1FF0010AD8B496EF1FF0030AD8B49E8E
:103FD300EF1FF0010AD8B4A6EF1FF00F0AD8B4AE52
:103FE300EF1FF0010AD8B4B6EF1FF0030AD8B4BC30
:0D3FF300EF1FF0FDEF1FF0FFFF1200FFFFBA
:020000040020DA
:08000000FFFFFFFFFFFFFFFF00
:020000040030CA
:0E000000FF210C0EFF0181FF0FC00FE00F402B
:00000001FF
