:020000040000FA
:0600000000F044EF1CF0CB
:10380000FFFFFFFF566E565055141200FFFFFFFFDB
:10381000566E565055101200FFFFFFFF566E555062
:10382000565C1200FFFFFFFF566E565055241200E3
:10383000FFFFFFFF566E565055181200FFFFFFFFA7
:10384000566E56505502F3501200FFFFFFFF5A6E9E
:1038500059C055F05A5095EC1CF01200FFFFFFFFC5
:10386000586E57C055F0585001EC1CF0FF0A12007A
:10387000FFFFFFFF5A6E59C055F05A503AEC1DF049
:103880005B6E5B501200FFFF6C0EF66E390EF76E2A
:10389000000EF86E00EE01F010EE54F00900F5CFC6
:1038A000EEFFE550E150FAE1000EF86E0001A2EFE4
:1038B0001EF0FFFF556E5B0E556061EF1CF064EF6C
:1038C0001CF0FFFF70EF1CF0FFFF400E55646BEF24
:1038D0001CF06EEF1CF0FFFF70EF1CF0FFFF558A2D
:1038E000FFFF55501200FFFFFFFF060EC16E000ED6
:1038F000926E000E896E000E806E9368000E8A6EC6
:1039000081689468000E8B6E000E826E000E956EBC
:10391000000E8C6E000E836E000E966E000E8D6E85
:10392000000E846E1200FFFFFFFFFFFF566E080EB1
:10393000576E000E586EFFFFD89056345834586EAC
:10394000D89056365550585CD8A0A9EF1CF0ACEF73
:103950001CF0FFFFAFEF1CF0FFFF5550585EFFFF5C
:10396000572E9BEF1CF058501200FFFFF888F840CC
:10397000F8F8B8A8E8A8A8F8E020F8E8A8B8F8A8E7
:10398000B88080F8F8A8F8E0A0F8F8A0F8F828388F
:10399000F888883828F8F8A8A8F8A0A02070202077
:1039A00020205020501020407020702040204020C7
:1039B0004050605060506080F880505050F8B0E83F
:1039C000FFFF5B6E020E5C6EFBEF1CF0FFFF5CC046
:1039D00059F05B5026EC1CF00009D8A4F2EF1CF063
:1039E000F5EF1CF0FFFFF9EF1CF0FFFF010E08EFF1
:1039F0001DF0FFFF5C2AFFFF5B505C5CD8A003EF6B
:103A00001DF006EF1DF0FFFFE6EF1CF0FFFF000EBC
:103A1000FFFF1200FFFFFFFF0E0E566E000E576EE7
:103A2000010E586E6E0E75EC1DF00B0E566E040EE8
:103A3000576E010E586E730E75EC1DF00E0E566E1D
:103A4000000E576E020E586E6E0E75EC1DF00B0ECA
:103A5000566E040E576E020E586E730E75EC1DF006
:103A6000050E606EDF0EFFFFE82EFDD7602EFBD740
:103A70001200FFFFFFFF566E000E586E5550D8B46F
:103A800044EF1DF047EF1DF0FFFF71EF1DF0FFFF4A
:103A9000010E576E50EF1DF0FFFFD8905536572A94
:103AA000FFFF55AE56EF1DF059EF1DF0FFFF4CEF35
:103AB0001DF0FFFFFFFFD89058365550565CD8A038
:103AC00064EF1DF067EF1DF0FFFF6BEF1DF0FFFFD0
:103AD0005550565E5880FFFFD8905532572E5AEFFA
:103AE0001DF0FFFF58501200FFFFFFFF5C6E000E3D
:103AF0005F6EFFFF5F5057C059F05A6A5926000E9B
:103B00005A225ABE8DEF1DF05A500AE1070E595C39
:103B1000D8A08DEF1DF090EF1DF0FFFF93EF1DF08B
:103B2000FFFFF8EF1DF0FFFF5804D8A49AEF1DF037
:103B30009DEF1DF0FFFFA2EF1DF0FFFF8986899A20
:103B4000A5EF1DF0FFFF8996898AFFFF5C5059ECB5
:103B50001CF0730AD8B4AFEF1DF0B2EF1DF0FFFFF9
:103B6000CAEF1DF0FFFF5650030D010E596E000EF7
:103B70005A6EF3505926F4505A225F505924D96E88
:103B8000000E5A20DA6EDF505B6E5B505D6E5E6A2F
:103B9000E0EF1DF0FFFF5650030D310E596E000E81
:103BA0005A6EF3505926F4505A225F505924D96E58
:103BB000000E5A20DA6EDF505B6E5B505D6E5E6AFF
:103BC000FFFF5DC08CFF5F5057248D6E050E596E50
:103BD000DF0EFFFFE82EFDD7592EFBD75F2A020E1E
:103BE0005F64F5EF1DF0F8EF1DF0FFFF79EF1DF0BA
:103BF000FFFF1200FFFFFFFF5F6E6FEF1EF0FFFF82
:103C00005EC055F05D5013EC1CF09FEF1EF0FFFFFF
:103C10005EC055F05D500DEC1CF09FEF1EF0FFFFF5
:103C20005EC055F05D501FEC1CF09FEF1EF0FFFFD3
:103C30005EC059F05D5039EC1CF09FEF1EF0FFFFA5
:103C40005EC059F05D5026EC1CF09FEF1EF0FFFFA8
:103C50005EC055F05D5001EC1CF09FEF1EF0FFFFC1
:103C60005EC055F05D5007EC1CF09FEF1EF0FFFFAB
:103C70005EC057F05D502FEC1CF09FEF1EF0FFFF71
:103C80005EC055F05D5019EC1CF09FEF1EF0FFFF79
:103C90005D50E0EC1CF09FEF1EF0FFFF020E5D1880
:103CA000D8A455EF1EF058EF1EF0FFFF6BEF1EF08B
:103CB000FFFF020E596E5E5026EC1CF00009D8A4DE
:103CC00064EF1EF067EF1EF0FFFF6BEF1EF0FFFFCB
:103CD000010E9FEF1EF0FFFF000E9FEF1EF0FFFF93
:103CE0005F50000AD8B4FFEF1DF0010AD8B407EF07
:103CF0001EF0030AD8B40FEF1EF0010AD8B417EF74
:103D00001EF0070AD8B41FEF1EF0010AD8B427EF3F
:103D10001EF0030AD8B42FEF1EF0010AD8B437EF13
:103D20001EF00F0AD8B43FEF1EF0010AD8B447EFD7
:103D30001EF0030AD8B44DEF1EF09FEF1EF0FFFFF8
:103D40001200FFFFFFFF74EC1CF0FFFF81380F0B28
:103D50006E6E81500F0B6F6E82500F0B6C6E000EEB
:103D6000696EC0EF1FF0FFFF6EC05DF06FC05EF0C8
:103D70006C50FBEC1DF06D6E6DC056F0000E576E72
:103D8000010E586E6E0E75EC1DF0F0EF1FF0FFFF88
:103D90006F506E5CD8A0CFEF1EF0D2EF1EF0FFFF89
:103DA000E0EF1EF0FFFF6EC05DF06FC05EF06C5084
:103DB000FBEC1DF0616E6150626E636AECEF1EF009
:103DC000FFFF6FC05DF06EC05EF06C50FBEC1DF04D
:103DD000616E6150626E636AFFFF62C06DF0000E3B
:103DE0006A6E6F506E5CD8B0F8EF1EF0FBEF1EF0FD
:103DF000FFFF07EF1FF0FFFF010E566E000E576E1C
:103E0000010E586E730E75EC1DF0030E6A26FFFF4F
:103E10006DC056F06AC057F0010E586E6E0E75EC0C
:103E20001DF0F0EF1FF0FFFF6F50D8A41AEF1FF046
:103E30001DEF1FF0FFFF22EF1FF0FFFF0BEC1DF047
:103E4000F0EF1FF0FFFF6EC05DF06FC05EF06C50D2
:103E5000FBEC1DF06D6E6DC056F0000E576E010E3E
:103E6000586E6E0E75EC1DF0F0EF1FF0FFFFFFFFB8
:103E70006EC05DF06FC05EF06C50FBEC1DF06D6EBF
:103E80006DC061F00F0E61166150676E686A67C0A1
:103E900056F0000E576E010E586E6E0E75EC1DF04A
:103EA000F0EF1FF0FFFF6EC05DF06FC05EF06C5072
:103EB000FBEC1DF06D6E6D50D8A461EF1FF064EF48
:103EC0001FF0FFFF6BEF1FF0FFFF000E686E0F0E7D
:103ED000676E70EF1FF0FFFF000E686E090E676ED1
:103EE000FFFF6D50D8A477EF1FF07AEF1FF0FFFFB0
:103EF00081EF1FF0FFFF000E656E6E0E646E86EFA1
:103F00001FF0FFFF000E656E730E646EFFFF64C04E
:103F100066F067C056F0000E576E010E586E665080
:103F200075EC1DF0F0EF1FF0FFFF000E6B6EFFFF52
:103F3000010E566E000E576E6B28586E730E75ECA0
:103F40001DF0010E566E030E576E6B28586E730EE1
:103F500075EC1DF0010E566E060E576E6B28586EEE
:103F6000730E75EC1DF06B2A010E6B64BAEF1FF037
:103F7000BDEF1FF0FFFF97EF1FF0FFFFF0EF1FF007
:103F8000FFFF6C50000AD8B4B3EF1EF0010AD8B49A
:103F9000C7EF1EF0030AD8B4B3EF1EF0010AD8B47D
:103FA00013EF1FF0070AD8B413EF1FF0010AD8B4BB
:103FB00036EF1FF0030AD8B437EF1FF0010AD8B468
:103FC00037EF1FF00F0AD8B437EF1FF0010AD8B44B
:103FD00052EF1FF0030AD8B452EF1FF094EF1FF016
:103FE000FFFF692AC70E6964F8EF1FF0FBEF1FF0AF
:103FF000FFFFC0EF1FF0FFFFA5EF1EF001EF00F085
:020000040020DA
:08000000FFFFFFFFFFFFFFFF00
:020000040030CA
:0E000000FF210C0EFF0181FF0FC00FE00F402B
:00000001FF
