:020000040000FA
:0600000000F099EF1DF075
:103AAA00FFFFFFFF536E535052141200FFFFFFFF38
:103ABA00536E535052101200FFFFFFFF546E5250C4
:103ACA00545C1200FFFFFFFF536E53505224120042
:103ADA00FFFFFFFF536E535052181200FFFFFFFF04
:103AEA00536E53505202F3501200FFFFFFFF576EFE
:103AFA0056C052F0575004EC1EF01200FFFFFFFFB1
:103B0A00556E54C052F0555056EC1DF0FF0A120083
:103B1A00FFFFFFFF576E56C052F057507EEC1EF063
:103B2A00586E58501200FFFF4B0EF66E3C0EF76EA1
:103B3A00000EF86E00EE01F010EE51F00900F5CF1C
:103B4A00EEFFE550E150FAE1676A000EF86E0001F7
:103B5A00B9EF1EF0FFFF586E020E566E58507BECFE
:103B6A001DF00009D8A4BCEF1DF0BFEF1DF0FFFF48
:103B7A00C3EF1DF0FFFF000EC5EF1DF0FFFF010EA2
:103B8A00FFFF1200FFFFFFFF526E5B0E5260D0EF85
:103B9A001DF0D3EF1DF0FFFFDFEF1DF0FFFF400E1A
:103BAA005264DAEF1DF0DDEF1DF0FFFFDFEF1DF0CD
:103BBA00FFFF528AFFFF52501200FFFFFFFF060E5F
:103BCA00C16E000E926E000E896E000E806E9368B2
:103BDA00000E8A6E81689468000E8B6E000E826EEB
:103BEA00000E956E000E8C6E000E836E000E966EA1
:103BFA00000E8D6E000E846E1200FFFFFFFFFFFFA6
:103C0A00536E080E546E000E556EFFFFD890533453
:103C1A005534556ED89053365250555CD8A018EF8B
:103C2A001EF01BEF1EF0FFFF1EEF1EF0FFFF5250AB
:103C3A00555EFFFF542E0AEF1EF055501200FFFF8B
:103C4B00F888F840F8F8B8A8E8A8A8F8E020F8E851
:103C5B00A8B8F8A8B88080F8F8A8F8E0A0F8F8A001
:103C6B00F8F82838F888883828F8F8A8A8F8A0A019
:103C7B0020702020202050205010204070207020D9
:103C8B00402040204050605060506080F880505081
:103C9B0050FFFF606E60C053F0000E546E010E5566
:103CAB006E6E0EFEEC1EF05EC053F0040E546E01F1
:103CBB000E556E730EFEEC1EF05DC053F0000E54ED
:103CCB006E020E556E6E0EFEEC1EF00A0E536E0457
:103CDB000E546E020E556E730EFEEC1EF0050E5F4B
:103CEB006EDF0EFFFFE82EFDD75F2EFBD71200FF16
:103CFB00FFFFFF536E000E556E5250D8B488EF1E67
:103D0B00F08BEF1EF0FFFFB5EF1EF0FFFF010E541F
:103D1B006E94EF1EF0FFFFD8905236542AFFFF52DD
:103D2B00AE9AEF1EF09DEF1EF0FFFF90EF1EF0FF1F
:103D3B00FFFFFFD89055365250535CD8A0A8EF1E0A
:103D4B00F0ABEF1EF0FFFFAFEF1EF0FFFF52505333
:103D5B005E5580FFFFD8905232542E9EEF1EF0FF1F
:103D6B00FF55501200FFFFFFFFE3EC1DF0FFFF813B
:103D7B00380F0B666E81500F0B656E82500F0B6404
:103D8B006E66C059F065C05AF064506AEC1FF06360
:103D9B006E000E616EFFFF65C05DF064C05EF06685
:103DAB00504EEC1EF0612AC70E6164DFEF1EF0E28D
:103DBB00EF1EF0FFFFD0EF1EF0FFFF000E626EFF55
:103DCB00FF63C053F0000E546E010E556E6E0EFE67
:103DDB00EC1EF0622AC70E6264F6EF1EF0F9EF1EBE
:103DEB00F0FFFFE5EF1EF0FFFFBCEF1EF001EF0051
:103DFB00F0FFFF596E000E5C6EFFFF5950C8EC1DB3
:103E0B00F0730AD8B40CEF1FF00FEF1FF0FFFF2772
:103E1B00EF1FF0FFFF5350030D010E566E000E57B0
:103E2B006EF3505626F45057225C505624D96E0030
:103E3B000E5720DA6EDF50586E58505A6E5B6A3D43
:103E4B00EF1FF0FFFF5350030D310E566E000E5750
:103E5B006EF3505626F45057225C505624D96E0000
:103E6B000E5720DA6EDF50586E58505A6E5B6AFF51
:103E7B00FF5AC08CFF5C5054248D6E5504D8A44956
:103E8B00EF1FF04CEF1FF0FFFF51EF1FF0FFFF890B
:103E9B0086899A54EF1FF0FFFF8996898AFFFF05E9
:103EAB000E566EDF0EFFFFE82EFDD7562EFBD75CAE
:103EBB002A020E5C6464EF1FF067EF1FF0FFFF0236
:103ECB00EF1FF0FFFF1200FFFFFFFF5B6ECDEF1F39
:103EDB00F0FFFF5AC052F0595068EC1DF0FDEF1F78
:103EEB00F0FFFF5AC052F0595062EC1DF0FDEF1F6E
:103EFB00F0FFFF5AC052F0595074EC1DF0FDEF1F4C
:103F0B00F0FFFF5AC056F059508EEC1DF0FDEF1F1D
:103F1B00F0FFFF5AC056F059507BEC1DF0FDEF1F20
:103F2B00F0FFFF5AC052F0595056EC1DF0FDEF1F39
:103F3B00F0FFFF5AC052F059505CEC1DF0FDEF1F23
:103F4B00F0FFFF5AC054F0595084EC1DF0FDEF1FE9
:103F5B00F0FFFF5AC052F059506EEC1DF0FDEF1FF1
:103F6B00F0FFFF5950AFEC1DF0FDEF1FF0FFFF020C
:103F7B000E5918D8B4C4EF1FF0C8EF1FF0FFFF01A4
:103F8B000ECAEF1FF0FFFF000EFFFFFDEF1FF0FF4C
:103F9B00FF5B50000AD8B46EEF1FF0010AD8B4765D
:103FAB00EF1FF0030AD8B47EEF1FF0010AD8B486D6
:103FBB00EF1FF0070AD8B48EEF1FF0010AD8B496A2
:103FCB00EF1FF0030AD8B49EEF1FF0010AD8B4A676
:103FDB00EF1FF00F0AD8B4AEEF1FF0010AD8B4B63A
:103FEB00EF1FF0030AD8B4BCEF1FF0FDEF1FF0FF7B
:053FFB00FF1200FFFFB2
:020000040020DA
:08000000FFFFFFFFFFFFFFFF00
:020000040030CA
:0E000000FF210C0EFF0181FF0FC00FE00F402B
:00000001FF
