:020000040000FA
:0600000000F02BEF1DF0E3
:1039CE00FFFFFFFF566E565055141200FFFFFFFF0C
:1039DE00566E565055101200FFFFFFFF566E555093
:1039EE00565C1200FFFFFFFF566E56505524120014
:1039FE00FFFFFFFF566E565055181200FFFFFFFFD8
:103A0E00566E56505502F3501200FFFFFFFF5A6ECE
:103A1E0059C055F05A5095EC1DF01200FFFFFFFFF4
:103A2E00586E57C055F05850E8EC1CF0FF0A1200C3
:103A3E00FFFFFFFF5A6E59C055F05A500FEC1EF0A3
:103A4E005B6E5B501200FFFF6C0EF66E3B0EF76E58
:103A5E00000EF86E00EE01F010EE54F00900F5CFF6
:103A6E00EEFFE550E150FAE1000EF86E00014CEF6A
:103A7E001FF0FFFF5B6E020E596E5B500DEC1DF0DA
:103A8E000009D8A44DEF1DF050EF1DF0FFFF54EFCD
:103A9E001DF0FFFF000E56EF1DF0FFFF010EFFFFA2
:103AAE001200FFFFFFFF556E5B0E556061EF1DF0BC
:103ABE0064EF1DF0FFFF70EF1DF0FFFF400E556429
:103ACE006BEF1DF06EEF1DF0FFFF70EF1DF0FFFFAF
:103ADE00558AFFFF55501200FFFFFFFF060EC16E05
:103AEE00000E926E000E896E000E806E9368000EB0
:103AFE008A6E81689468000E8B6E000E826E000EC8
:103B0E00956E000E8C6E000E836E000E966E000E7D
:103B1E008D6E000E846E1200FFFFFFFFFFFF566ECC
:103B2E00080E576E000E586EFFFFD890563458345C
:103B3E00586ED89056365550585CD8A0A9EF1DF047
:103B4E00ACEF1DF0FFFFAFEF1DF0FFFF5550585EBD
:103B5E00FFFF572E9BEF1DF058501200FFFFF88805
:103B6E00F840F8F8B8A8E8A8A8F8E020F8E8A8B84F
:103B7E00F8A8B88080F8F8A8F8E0A0F8F8A0F8F84F
:103B8E002838F888883828F8F8A8A8F8A0A0207057
:103B9E0020202020502050102040702070204020E7
:103BAE0040204050605060506080F880505050F877
:103BBE00B0E8FFFF0E0E566E000E576E010E586ED9
:103BCE006E0E4AEC1EF00B0E566E040E576E010E64
:103BDE00586E730E4AEC1EF00E0E566E000E576E99
:103BEE00020E586E6E0E4AEC1EF00B0E566E040E42
:103BFE00576E020E586E730E4AEC1EF0050E606E76
:103C0E00DF0EFFFFE82EFDD7602EFBD71200FFFF61
:103C1E00FFFF566E000E586E5550D8B419EF1EF0B9
:103C2E001CEF1EF0FFFF46EF1EF0FFFF010E576E5A
:103C3E0025EF1EF0FFFFD8905536572AFFFF55AEE1
:103C4E002BEF1EF02EEF1EF0FFFF21EF1EF0FFFFF9
:103C5E00FFFFD89058365550565CD8A039EF1EF05D
:103C6E003CEF1EF0FFFF40EF1EF0FFFF5550565E7B
:103C7E005880FFFFD8905532572E2FEF1EF0FFFFC2
:103C8E0058501200FFFFFFFF5C6E000E5F6EFFFFCD
:103C9E005804D8A455EF1EF058EF1EF0FFFF5DEF4D
:103CAE001EF0FFFF8986899A60EF1EF0FFFF89964E
:103CBE00898AFFFF5C5059EC1DF0730AD8B46AEF85
:103CCE001EF06DEF1EF0FFFF85EF1EF0FFFF56504A
:103CDE00030D010E596E000E5A6EF3505926F45014
:103CEE005A225F505924D96E000E5A20DA6EDF50D8
:103CFE005B6E5B505D6E5E6A9BEF1EF0FFFF565073
:103D0E00030D310E596E000E5A6EF3505926F450B3
:103D1E005A225F505924D96E000E5A20DA6EDF50A7
:103D2E005B6E5B505D6E5E6AFFFF5DC08CFF5F5029
:103D3E0057248D6E050E596EDF0EFFFFE82EFDD750
:103D4E00592EFBD75F2A020E5F64B0EF1EF0B3EF61
:103D5E001EF0FFFF4EEF1EF0FFFF1200FFFFFFFFF2
:103D6E005E6E19EF1FF0FFFF5DC055F05C50FAEC70
:103D7E001CF049EF1FF0FFFF5DC055F05C50F4ECF6
:103D8E001CF049EF1FF0FFFF5DC055F05C5006ECD4
:103D9E001DF049EF1FF0FFFF5DC059F05C5020ECA5
:103DAE001DF049EF1FF0FFFF5DC059F05C500DECA8
:103DBE001DF049EF1FF0FFFF5DC055F05C50E8ECC1
:103DCE001CF049EF1FF0FFFF5DC055F05C50EEECAC
:103DDE001CF049EF1FF0FFFF5DC057F05C5016EC72
:103DEE001DF049EF1FF0FFFF5DC055F05C5000EC79
:103DFE001DF049EF1FF0FFFF5C5040EC1DF049EF46
:103E0E001FF0FFFF020E5C18D8B410EF1FF014EF76
:103E1E001FF0FFFF010E16EF1FF0FFFF000EFFFF5A
:103E2E0049EF1FF0FFFF5E50000AD8B4BAEF1EF044
:103E3E00010AD8B4C2EF1EF0030AD8B4CAEF1EF0BE
:103E4E00010AD8B4D2EF1EF0070AD8B4DAEF1EF08A
:103E5E00010AD8B4E2EF1EF0030AD8B4EAEF1EF05E
:103E6E00010AD8B4F2EF1EF00F0AD8B4FAEF1EF022
:103E7E00010AD8B402EF1FF0030AD8B408EF1FF0FE
:103E8E0049EF1FF0FFFF1200FFFFFFFF74EC1DF064
:103E9E00FFFF81380F0B686E81500F0B696E8250D9
:103EAE000F0B676E000E646EE0EF1FF0FFFF6950A0
:103EBE00685CD8A065EF1FF068EF1FF0FFFF76EF8C
:103ECE001FF0FFFF68C05CF069C05DF06750B6EC94
:103EDE001EF0616E6150626E636A82EF1FF0FFFF2B
:103EEE0069C05CF068C05DF06750B6EC1EF0616EA4
:103EFE006150626E636AFFFF62C066F0000E656E0F
:103F0E006950685CD8B08EEF1FF091EF1FF0FFFF85
:103F1E009DEF1FF0FFFF010E566E000E576E010E45
:103F2E00586E730E4AEC1EF0030E6526FFFF66C038
:103F3E0056F065C057F0010E586E6E0E4AEC1EF02C
:103F4E00F0EF1FF0FFFF6950D8A4B0EF1FF0B3EFF2
:103F5E001FF0FFFFB8EF1FF0FFFFE0EC1DF0F0EFDA
:103F6E001FF0FFFF68C05CF069C05DF06750B6ECF3
:103F7E001EF0666E66C056F0000E576E010E586E3D
:103F8E006E0E4AEC1EF0F0EF1FF0FFFF68C05CF003
:103F9E0069C05DF06750B6EC1EF0666E66C056F0F6
:103FAE00000E576E010E586E6E0E4AEC1EF0F0EFBC
:103FBE001FF0FFFF6750010AD8B45DEF1FF0020A31
:103FCE00D8B4A9EF1FF0070AD8B4A9EF1FF0CCEFB1
:103FDE001FF0FFFF642AC70E6464F8EF1FF0FBEFBB
:103FEE001FF0FFFFE0EF1FF0FFFF4FEF1FF001EF9D
:023FFE0000F0D1
:020000040020DA
:08000000FFFFFFFFFFFFFFFF00
:020000040030CA
:0E000000FF210C0EFF0181FF0FC00FE00F402B
:00000001FF
