:020000040000FA
:0600000000F092EF1CF07D
:10389C00FFFFFFFF566E565055141200FFFFFFFF3F
:1038AC00566E565055101200FFFFFFFF566E5550C6
:1038BC00565C1200FFFFFFFF566E56505524120047
:1038CC00FFFFFFFF566E565055181200FFFFFFFF0B
:1038DC00566E56505502F3501200FFFFFFFF5A6E02
:1038EC0059C055F05A50E3EC1CF01200FFFFFFFFDB
:1038FC00586E57C055F058504FEC1CF0FF0A120090
:10390C00FFFFFFFF5A6E59C055F05A5088EC1DF05E
:10391C005B6E5B501200FFFF080EF66E3A0EF76EF0
:10392C00000EF86E00EE01F010EE54F00900F5CF29
:10393C00EEFFE550E150FAE1000EF86E0001D6EF13
:10394C001EF0FFFF556E5B0E5560AFEF1CF0B2EF33
:10395C001CF0FFFFBEEF1CF0FFFF400E5564B9EFEB
:10396C001CF0BCEF1CF0FFFFBEEF1CF0FFFF558AF4
:10397C00FFFF55501200FFFFFFFF060EC16E000E39
:10398C00926E000E896E000E806E9368000E8A6E29
:10399C0081689468000E8B6E000E826E000E956E20
:1039AC00000E8C6E000E836E000E966E000E8D6EE9
:1039BC00000E846E1200FFFFFFFFFFFF566E080E15
:1039CC00576E000E586EFFFFD89056345834586E10
:1039DC00D89056365550585CD8A0F7EF1CF0FAEF3B
:1039EC001CF0FFFFFDEF1CF0FFFF5550585EFFFF72
:1039FC00572EE9EF1CF058501200FFFFF888F840E2
:103A0C00F8F8B8A8E8A8A8F8E020F8E8A8B8F8A84A
:103A1C00B88080F8F8A8F8E0A0F8F8A0F8F82838F2
:103A2C00F888883828F8F8A8A8F8A0A020702020DA
:103A3C00202050205010204070207020402040202A
:103A4C004050605060506080F880505050F8B0E8A2
:103A5C00FFFF5B6E020E5C6E49EF1DF0FFFF5CC05A
:103A6C0059F05B5074EC1CF00009D8A440EF1DF029
:103A7C0043EF1DF0FFFF47EF1DF0FFFF010E56EF68
:103A8C001DF0FFFF5C2AFFFF5B505C5CD8A051EF80
:103A9C001DF054EF1DF0FFFF34EF1DF0FFFF000E83
:103AAC00FFFF1200FFFFFFFF0E0E566E000E576E4B
:103ABC00010E586E6E0EC3EC1DF00B0E566E040EFE
:103ACC00576E010E586E730EC3EC1DF00E0E566E33
:103ADC00000E576E020E586E6E0EC3EC1DF00B0EE0
:103AEC00566E040E576E020E586E730EC3EC1DF01C
:103AFC00050E606EDF0EFFFFE82EFDD7602EFBD7A4
:103B0C001200FFFFFFFF566E000E586E5550D8B4D2
:103B1C0092EF1DF095EF1DF0FFFFBFEF1DF0FFFFC3
:103B2C00010E576E9EEF1DF0FFFFD8905536572AA9
:103B3C00FFFF55AEA4EF1DF0A7EF1DF0FFFF9AEFAE
:103B4C001DF0FFFFFFFFD89058365550565CD8A09B
:103B5C00B2EF1DF0B5EF1DF0FFFFB9EF1DF0FFFF49
:103B6C005550565E5880FFFFD8905532572EA8EF0F
:103B7C001DF0FFFF58501200FFFFFFFF5C6E000EA0
:103B8C005F6EFFFF5804D8A4CEEF1DF0D1EF1DF0EF
:103B9C00FFFFD6EF1DF0FFFF8986899AD9EF1DF044
:103BAC00FFFF8996898AFFFF5C50A7EC1CF0730A13
:103BBC00D8B4E3EF1DF0E6EF1DF0FFFFFEEF1DF0B4
:103BCC00FFFF5650030D010E596E000E5A6EF35046
:103BDC005926F4505A225F505924D96E000E5A209F
:103BEC00DA6EDF505B6E5B505D6E5E6A14EF1EF03A
:103BFC00FFFF5650030D310E596E000E5A6EF350E6
:103C0C005926F4505A225F505924D96E000E5A206E
:103C1C00DA6EDF505B6E5B505D6E5E6AFFFF5DC0FF
:103C2C008CFF5F5057248D6E050E596EDF0EFFFF13
:103C3C00E82EFDD7592EFBD75F2A020E5F6429EFC1
:103C4C001EF02CEF1EF0FFFFC7EF1DF0FFFF120060
:103C5C00FFFFFFFF5F6EA3EF1EF0FFFF5EC055F08E
:103C6C005D5061EC1CF0D3EF1EF0FFFF5EC055F011
:103C7C005D505BEC1CF0D3EF1EF0FFFF5EC055F007
:103C8C005D506DEC1CF0D3EF1EF0FFFF5EC059F0E1
:103C9C005D5087EC1CF0D3EF1EF0FFFF5EC059F0B7
:103CAC005D5074EC1CF0D3EF1EF0FFFF5EC055F0BE
:103CBC005D504FEC1CF0D3EF1EF0FFFF5EC055F0D3
:103CCC005D5055EC1CF0D3EF1EF0FFFF5EC057F0BB
:103CDC005D507DEC1CF0D3EF1EF0FFFF5EC055F085
:103CEC005D5067EC1CF0D3EF1EF0FFFF5D502EEC27
:103CFC001DF0D3EF1EF0FFFF020E5D18D8A489EF64
:103D0C001EF08CEF1EF0FFFF9FEF1EF0FFFF020E68
:103D1C00596E5E5074EC1CF00009D8A498EF1EF09C
:103D2C009BEF1EF0FFFF9FEF1EF0FFFF010ED3EF86
:103D3C001EF0FFFF000ED3EF1EF0FFFF5F50000AD6
:103D4C00D8B433EF1EF0010AD8B43BEF1EF0030ACF
:103D5C00D8B443EF1EF0010AD8B44BEF1EF0070A9B
:103D6C00D8B453EF1EF0010AD8B45BEF1EF0030A6F
:103D7C00D8B463EF1EF0010AD8B46BEF1EF00F0A33
:103D8C00D8B473EF1EF0010AD8B47BEF1EF0030A0F
:103D9C00D8B481EF1EF0D3EF1EF0FFFF1200FFFF2F
:103DAC00FFFFC2EC1CF0FFFF81380F0B6D6E8150D2
:103DBC000F0B6E6E82500F0B6B6E000E696EC8EFA0
:103DCC001FF0FFFF6E506D5CD8A0EFEF1EF0F2EF0E
:103DDC001EF0FFFF00EF1FF0FFFF6DC05DF06EC027
:103DEC005EF06B502FEC1EF0616E6150626E636A78
:103DFC000CEF1FF0FFFF6EC05DF06DC05EF06B50FE
:103E0C002FEC1EF0616E6150626E636AFFFF62C040
:103E1C006CF0000E6A6E6E506D5CD8B018EF1FF02F
:103E2C001BEF1FF0FFFF27EF1FF0FFFF010E566E79
:103E3C00000E576E010E586E730EC3EC1DF0030E80
:103E4C006A26FFFF6CC056F06AC057F0010E586E20
:103E5C006E0EC3EC1DF0F0EF1FF0FFFF6E50D8A4F8
:103E6C003AEF1FF03DEF1FF0FFFF42EF1FF0FFFF97
:103E7C0059EC1DF0F0EF1FF0FFFF6DC05DF06EC050
:103E8C005EF06B502FEC1EF06C6E6CC056F0000E9A
:103E9C00576E010E586E6E0EC3EC1DF0F0EF1FF056
:103EAC00FFFFFFFF6DC05DF06EC05EF06B502FEC3E
:103EBC001EF06C6E6CC061F00F0E61166150676E77
:103ECC00686A67C056F0000E576E010E586E6E0E83
:103EDC00C3EC1DF0F0EF1FF0FFFF6DC05DF06EC086
:103EEC005EF06B502FEC1EF06C6E6C50D8A481EF12
:103EFC001FF084EF1FF0FFFF8BEF1FF0FFFF000E92
:103F0C00686E0F0E676E90EF1FF0FFFF000E686E6D
:103F1C00090E676EFFFF6C50D8A497EF1FF09AEF55
:103F2C001FF0FFFFA1EF1FF0FFFF000E656E6E0E7E
:103F3C00646EA6EF1FF0FFFF000E656E730E646ECD
:103F4C00FFFF64C066F067C056F0000E576E010E9E
:103F5C00586E6650C3EC1DF0F0EF1FF0FFFF6DC004
:103F6C005DF06EC05EF06B502FEC1EF06C6E6CC092
:103F7C0056F0000E576E010E586E6E0EC3EC1DF00F
:103F8C00F0EF1FF0FFFF6B50010AD8B4E7EF1EF003
:103F9C00020AD8B433EF1FF0070AD8B433EF1FF07E
:103FAC00010AD8B456EF1FF0030AD8B457EF1FF02C
:103FBC00010AD8B457EF1FF00F0AD8B457EF1FF00F
:103FCC00010AD8B472EF1FF0030AD8B472EF1FF0D5
:103FDC00B4EF1FF0FFFF692AC70E6964F8EF1FF0FA
:103FEC00FBEF1FF0FFFFC8EF1FF0FFFFD9EF1EF034
:043FFC0001EF00F0E1
:020000040020DA
:08000000FFFFFFFFFFFFFFFF00
:020000040030CA
:0E000000FF210C0EFF0181FF0FC00FE00F402B
:00000001FF
