:020000040000FA
:0600000000F041EF1DF0CD
:1039BC00FFFFFFFF546E54505224526E536A53361D
:1039CC001200FFFFFFFF546E54505202F3CF52F01F
:1039DC00F4CF53F01200FFFFFFFF556E55505214F9
:1039EC00546E5450526E536A1200FFFFFFFF556E17
:1039FC0055505210546E5450526E536A1200FFFFC1
:103A0C00FFFF556E5250555C526E536AD8A0530648
:103A1C001200FFFFFFFF556E55505218546E545054
:103A2C00526E536A1200FFFFFFFF586E56C052F0E1
:103A3C00585035EC1EF0596E59C056F0576A1200AA
:103A4C00FFFFFFFF586E56C052F05850F2EC1CF0BE
:103A5C00521C566E531C576E1200FFFFFFFF596E1F
:103A6C0056C052F0595091EC1DF0586E5850566E8D
:103A7C00576A1200FFFFA70EF66E3B0EF76E000E94
:103A8C00F86E00EE01F010EE51F00900F5CFEEFFEC
:103A9C00E550E150FAE1000EF86E0001CEEF1EF099
:103AAC00FFFF060EC16E000E936E000E8A6E000EA6
:103ABC00816E000E946E000E8B6E000E826E9568F9
:103ACC00000E8C6E000E836E9668000E8D6E000ECE
:103ADC00846E1200FFFFFFFFFFFF020E566E5A505E
:103AEC0034EC1DF056505710D8A47FEF1DF082EF28
:103AFC001DF0FFFF89EF1DF0FFFF000E5B6E000E47
:103B0C005A6E8EEF1DF0FFFF000E5B6E010E5A6EAB
:103B1C00FFFF1200FFFFFFFF536E080E546E000EE6
:103B2C00556EFFFFD89053345534556ED89053369C
:103B3C005250555CD8A0A5EF1DF0A8EF1DF0FFFF6B
:103B4C00ABEF1DF0FFFF5250555EFFFF542E97EF69
:103B5C001DF055501200FFFFFFFFBF0E546EFF0EFD
:103B6C00556E52C056F053C057F05450562655500F
:103B7C00572257500BE11A0E565CD8A0C8EF1DF017
:103B8C00CCEF1DF0FFFF010ECEEF1DF0FFFF000E7E
:0A3B9C00FFFF526E536A1200FFFF94
:103BA700F888F840F800B8A8E8A8A8F8E020F8E8EE
:103BB700A8B8F8A8B88080F8F8A8F8E0A0F8F8A0A6
:103BC700F8F82838F888883828F8F8A8A8F8A0A0BE
:103BD700207020202020502050102040702070207E
:103BE700402040204050605060506080F880505026
:103BF70050FFFFBF0E5A6EFF0E5B6E58C05CF05948
:103C0700C05DF05A505C265B505D225D500BE11A97
:103C17000E5C5CD8A012EF1EF016EF1EF0FFFF013E
:103C27000E18EF1EF0FFFF000EFFFF5E6E5F6A5E6D
:103C3700505F10D8B422EF1EF025EF1EF0FFFF2DC6
:103C4700EF1EF0FFFF200E5810586E5950596E3274
:103C5700EF1EF0FFFF58C058F059C059F0FFFF1290
:103C670000FFFFFFFF536E000E556E5250D8B43F52
:103C7700EF1EF042EF1EF0FFFF6CEF1EF0FFFF019B
:103C87000E546E4BEF1EF0FFFFD8905236542AFFAA
:103C9700FF52AE51EF1EF054EF1EF0FFFF47EF1E2D
:103CA700F0FFFFFFFFD89055365250535CD8A05F06
:103CB700EF1EF062EF1EF0FFFF66EF1EF0FFFF52F0
:103CC70050535E5580FFFFD8905232542E55EF1E49
:103CD700F0FFFF55501200FFFFFFFF000E6C6EFF55
:103CE700FF60C058F061C059F0FCEC1DF0730E582E
:103CF700185910D8B482EF1EF085EF1EF0FFFF9D14
:103D0700EF1EF0FFFF6250030D010E676E000E6895
:103D17006EF3506726F45068226C506724D96E0002
:103D27000E6820DA6EDF50696E69506A6E6B6AB38F
:103D3700EF1EF0FFFF6250030D310E676E000E6835
:103D47006EF3506726F45068226C506724D96E00D2
:103D57000E6820DA6EDF50696E69506A6E6B6AFF13
:103D6700FF6AC08CFF6C5063248D6E050E676EDF93
:103D77000EFFFFE82EFDD7672EFBD76C2A020E6CCD
:103D870064C8EF1EF0CBEF1EF0FFFF73EF1EF0FFCE
:103D9700FF1200FFFFFFFF56EC1DF0FFFF81CF7200
:103DA700F072380F0B716E72500F0B706E82500FDE
:103DB7000B6F6E71C05CF070C05DF06F5033EC1F1D
:103DC700F05C506E6E6E0E606E000E616E71C062BA
:103DD700F0000E646E000E636E000E666E010E65D7
:103DE7006E70EC1EF0730E606E000E616E6FC06237
:103DF700F0000E646E040E636E000E666E010E65B3
:103E07006E70EC1EF06E0E606E000E616E70C0621A
:103E1700F0000E646E000E636E000E666E020E6595
:103E27006E70EC1EF0730E606E000E616E0B0E620C
:103E37006E000E646E040E636E000E666E020E65F3
:103E47006E70EC1EF00A0E6D6EBE0EFFFFE82EFDC3
:103E5700D76D2EFBD700D0D1EF1EF001EF00F0FF9A
:103E6700FF606EC2EF1FF0FFFF5DC052F05C50DFD6
:103E7700EC1CF052C05CF053C05DF0FDEF1FF0FF8B
:103E8700FF5DC052F05C5006EC1DF052C05CF05371
:103E9700C05DF0FDEF1FF0FFFF5DC052F05C50E822
:103EA700EC1CF052C05CF053C05DF0FDEF1FF0FF5B
:103EB700FF5DC056F05C501AEC1DF056C05CF05721
:103EC700C05DF0FDEF1FF0FFFF5DC056F05C5034A2
:103ED700EC1DF056C05CF057C05DF0FDEF1FF0FF22
:103EE700FF5DC052F05C50F2EC1CF052C05CF05326
:103EF700C05DF0FDEF1FF0FFFF5DC052F05C50FCAE
:103F0700EC1CF052C05CF053C05DF0FDEF1FF0FFFA
:103F1700FF5DC056F05C5027EC1DF056C05CF057B3
:103F2700C05DF0FDEF1FF0FFFF5DC052F05C501069
:103F3700EC1DF052C05CF053C05DF0FDEF1FF0FFC9
:103F4700FF5CC05AF05B6A72EC1DF05AC05CF05B14
:103F5700C05DF0FDEF1FF0FFFF020E5C18D8B4B78D
:103F6700EF1FF0BBEF1FF0FFFF010EBDEF1FF0FFCC
:103F7700FF000EFFFF5C6E5D6AFDEF1FF0FFFF6045
:103F8700505E6E5F6A5F50000AD8B4CDEF1FF0FD38
:103F9700EF1FF0FFFF5E50000AD8B437EF1FF001A4
:103FA7000AD8B443EF1FF0030AD8B44FEF1FF0014C
:103FB7000AD8B45BEF1FF0070AD8B467EF1FF00108
:103FC7000AD8B473EF1FF0030AD8B47FEF1FF001CC
:103FD7000AD8B48BEF1FF00F0AD8B497EF1FF00180
:103FE7000AD8B4A3EF1FF0030AD8B4AFEF1FF0FD50
:093FF700EF1FF0FFFF1200FFFFB5
:020000040020DA
:08000000FFFFFFFFFFFFFFFF00
:020000040030CA
:0E000000FF210C0EFF0181FF0FC00FE00F402B
:00000001FF
