:020000040000FA
:0600000000F02FEF1DF0DF
:1039D600FFFFFFFF566E565055141200FFFFFFFF04
:1039E600566E565055101200FFFFFFFF566E55508B
:1039F600565C1200FFFFFFFF566E5650552412000C
:103A0600FFFFFFFF566E565055181200FFFFFFFFCF
:103A1600566E56505502F3501200FFFFFFFF5A6EC6
:103A260059C055F05A5099EC1DF01200FFFFFFFFE8
:103A3600586E57C055F05850ECEC1CF0FF0A1200B7
:103A4600FFFFFFFF5A6E59C055F05A5013EC1EF097
:103A56005B6E5B501200FFFF740EF66E3B0EF76E48
:103A6600000EF86E00EE01F010EE54F00900F5CFEE
:103A7600EEFFE550E150FAE1000EF86E000150EF5E
:103A86001FF0FFFF5B6E020E596E5B5011EC1DF0CE
:103A96000009D8A451EF1DF054EF1DF0FFFF58EFB9
:103AA6001DF0FFFF000E5AEF1DF0FFFF010EFFFF96
:103AB6001200FFFFFFFF556E5B0E556065EF1DF0B0
:103AC60068EF1DF0FFFF74EF1DF0FFFF400E556419
:103AD6006FEF1DF072EF1DF0FFFF74EF1DF0FFFF9B
:103AE600558AFFFF55501200FFFFFFFF060EC16EFD
:103AF600000E926E000E896E000E806E9368000EA8
:103B06008A6E81689468000E8B6E000E826E000EBF
:103B1600956E000E8C6E000E836E000E966E000E75
:103B26008D6E000E846E1200FFFFFFFFFFFF566EC4
:103B3600080E576E000E586EFFFFD8905634583454
:103B4600586ED89056365550585CD8A0ADEF1DF03B
:103B5600B0EF1DF0FFFFB3EF1DF0FFFF5550585EAD
:103B6600FFFF572E9FEF1DF058501200FFFFF888F9
:103B7600F840F8F8B8A8E8A8A8F8E020F8E8A8B847
:103B8600F8A8B88080F8F8A8F8E0A0F8F8A0F8F847
:103B96002838F888883828F8F8A8A8F8A0A020704F
:103BA60020202020502050102040702070204020DF
:103BB60040204050605060506080F880505050F86F
:103BC600B0E8FFFF0E0E566E000E576E010E586ED1
:103BD6006E0E4EEC1EF00B0E566E040E576E010E58
:103BE600586E730E4EEC1EF00E0E566E000E576E8D
:103BF600020E586E6E0E4EEC1EF00B0E566E040E36
:103C0600576E020E586E730E4EEC1EF0050E606E69
:103C1600DF0EFFFFE82EFDD7602EFBD71200FFFF59
:103C2600FFFF566E000E586E5550D8B41DEF1EF0AD
:103C360020EF1EF0FFFF4AEF1EF0FFFF010E576E4A
:103C460029EF1EF0FFFFD8905536572AFFFF55AED5
:103C56002FEF1EF032EF1EF0FFFF25EF1EF0FFFFE5
:103C6600FFFFD89058365550565CD8A03DEF1EF051
:103C760040EF1EF0FFFF44EF1EF0FFFF5550565E6B
:103C86005880FFFFD8905532572E33EF1EF0FFFFB6
:103C960058501200FFFFFFFF5C6E000E5F6EFFFFC5
:103CA6005804D8A459EF1EF05CEF1EF0FFFF61EF39
:103CB6001EF0FFFF8986899A64EF1EF0FFFF899642
:103CC600898AFFFF5C505DEC1DF0730AD8B46EEF75
:103CD6001EF071EF1EF0FFFF89EF1EF0FFFF56503A
:103CE600030D010E596E000E5A6EF3505926F4500C
:103CF6005A225F505924D96E000E5A20DA6EDF50D0
:103D06005B6E5B505D6E5E6A9FEF1EF0FFFF565066
:103D1600030D310E596E000E5A6EF3505926F450AB
:103D26005A225F505924D96E000E5A20DA6EDF509F
:103D36005B6E5B505D6E5E6AFFFF5DC08CFF5F5021
:103D460057248D6E050E596EDF0EFFFFE82EFDD748
:103D5600592EFBD75F2A020E5F64B4EF1EF0B7EF51
:103D66001EF0FFFF52EF1EF0FFFF1200FFFFFFFFE6
:103D76005E6E1DEF1FF0FFFF5DC055F05C50FEEC60
:103D86001CF04DEF1FF0FFFF5DC055F05C50F8ECE6
:103D96001CF04DEF1FF0FFFF5DC055F05C500AECC4
:103DA6001DF04DEF1FF0FFFF5DC059F05C5024EC95
:103DB6001DF04DEF1FF0FFFF5DC059F05C5011EC98
:103DC6001DF04DEF1FF0FFFF5DC055F05C50ECECB1
:103DD6001CF04DEF1FF0FFFF5DC055F05C50F2EC9C
:103DE6001CF04DEF1FF0FFFF5DC057F05C501AEC62
:103DF6001DF04DEF1FF0FFFF5DC055F05C5004EC69
:103E06001DF04DEF1FF0FFFF5C5044EC1DF04DEF31
:103E16001FF0FFFF020E5C18D8B414EF1FF018EF66
:103E26001FF0FFFF010E1AEF1FF0FFFF000EFFFF4E
:103E36004DEF1FF0FFFF5E50000AD8B4BEEF1EF034
:103E4600010AD8B4C6EF1EF0030AD8B4CEEF1EF0AE
:103E5600010AD8B4D6EF1EF0070AD8B4DEEF1EF07A
:103E6600010AD8B4E6EF1EF0030AD8B4EEEF1EF04E
:103E7600010AD8B4F6EF1EF00F0AD8B4FEEF1EF012
:103E8600010AD8B406EF1FF0030AD8B40CEF1FF0EE
:103E96004DEF1FF0FFFF1200FFFFFFFF78EC1DF054
:103EA600FFFF81380F0B686E81500F0B696E8250D1
:103EB6000F0B676E000E646EE4EF1FF0FFFF695094
:103EC600685CD8A069EF1FF06CEF1FF0FFFF7AEF78
:103ED6001FF0FFFF68C05CF069C05DF06750BAEC88
:103EE6001EF0616E6150626E636A86EF1FF0FFFF1F
:103EF60069C05CF068C05DF06750BAEC1EF0616E98
:103F06006150626E636AFFFF62C066F0000E656E06
:103F16006950685CD8B092EF1FF095EF1FF0FFFF75
:103F2600A1EF1FF0FFFF010E566E000E576E010E39
:103F3600586E730E4EEC1EF0030E6526FFFF66C02C
:103F460056F065C057F0010E586E6E0E4EEC1EF020
:103F5600F0EF1FF0FFFF6950D8A4B4EF1FF0B7EFE2
:103F66001FF0FFFFBCEF1FF0FFFFE4EC1DF0F0EFCA
:103F76001FF0FFFF68C05CF069C05DF06750BAECE7
:103F86001EF0666E66C056F0000E576E010E586E35
:103F96006E0E4EEC1EF0F0EF1FF0FFFF68C05CF0F7
:103FA60069C05DF06750BAEC1EF0666E66C056F0EA
:103FB600000E576E010E586E6E0E4EEC1EF0F0EFB0
:103FC6001FF0FFFF6750010AD8B461EF1FF0020A25
:103FD600D8B4ADEF1FF0D0EF1FF0FFFF642AC70E75
:103FE6006464F8EF1FF0FBEF1FF0FFFFE4EF1FF034
:0A3FF600FFFF53EF1FF001EF00F092
:020000040020DA
:08000000FFFFFFFFFFFFFFFF00
:020000040030CA
:0E000000FF210C0EFF0181FF0FC00FE00F402B
:00000001FF
