:020000040000FA
:0600000000F06CEF1DF0A2
:103A1200FFFFFFFF546E54505224526E536A5336C6
:103A22001200FFFFFFFF546E54505202F3CF52F0C8
:103A3200F4CF53F01200FFFFFFFF556E55505214A2
:103A4200546E5450526E536A1200FFFFFFFF556EC0
:103A520055505210546E5450526E536A1200FFFF6A
:103A6200FFFF556E5250555C526E536AD8A05306F2
:103A72001200FFFFFFFF556E55505218546E5450FE
:103A8200526E536A1200FFFFFFFF586E56C052F08B
:103A9200585041EC1EF0596E59C056F0576A120048
:103AA200FFFFFFFF596E56C052F059509DEC1DF0BA
:103AB200586E5850566E576A1200FFFFFFFF586E3D
:103AC20056C052F058501DEC1DF0521C566E531C3D
:103AD200576E1200FFFFBF0EF66E3B0EF76E000E22
:103AE200F86E00EE01F010EE51F00900F5CFEEFF96
:103AF200E550E150FAE1000EF86E0001DAEF1EF037
:103B0200FFFF060EC16E000E936E000E8A6E000E4F
:103B1200816E000E946E000E8B6E000E826E9568A2
:103B2200000E8C6E000E836E9668000E8D6E000E77
:103B3200846E1200FFFFFFFFFFFF536E080E546EEC
:103B4200000E556EFFFFD89053345534556ED89001
:103B520053365250555CD8A0B1EF1DF0B4EF1DF0B2
:103B6200FFFFB7EF1DF0FFFF5250555EFFFF542ECF
:103B7200A3EF1DF055501200FFFFFFFFBF0E546E62
:103B8200FF0E556E52C056F053C057F05450562691
:103B92005550572257500BE11A0E565CD8A0D4EF5D
:103BA2001DF0D8EF1DF0FFFF010EDAEF1DF0FFFF51
:0C3BB200000EFFFF526E536A1200FFFF6E
:103BBF00F888F840F800B8A8E8A8A8F8E020F8E8D6
:103BCF00A8B8F8A8B88080F8F8A8F8E0A0F8F8A08E
:103BDF00F8F82838F888883828F8F8A8A8F8A0A0A6
:103BEF002070202020205020501020407020702066
:103BFF00402040204050605060506080F88050500E
:103C0F0050FFFFBF0E5A6EFF0E5B6E58C05CF0592F
:103C1F00C05DF05A505C265B505D225D500BE11A7F
:103C2F000E5C5CD8A01EEF1EF022EF1EF0FFFF010E
:103C3F000E24EF1EF0FFFF000EFFFF5E6E5F6A5E49
:103C4F00505F10D8B42EEF1EF031EF1EF0FFFF398A
:103C5F00EF1EF0FFFF200E5810586E5950596E3E50
:103C6F00EF1EF0FFFF58C058F059C059F0FFFF1278
:103C7F0000FFFFFFFF536E000E556E5250D8B44B2E
:103C8F00EF1EF04EEF1EF0FFFF78EF1EF0FFFF016B
:103C9F000E546E57EF1EF0FFFFD8905236542AFF86
:103CAF00FF52AE5DEF1EF060EF1EF0FFFF53EF1EF1
:103CBF00F0FFFFFFFFD89055365250535CD8A06BE2
:103CCF00EF1EF06EEF1EF0FFFF72EF1EF0FFFF52C0
:103CDF0050535E5580FFFFD8905232542E61EF1E25
:103CEF00F0FFFF55501200FFFFFFFF000E6C6EFF3D
:103CFF00FF60C058F061C059F008EC1EF0730E5809
:103D0F00185910D8B48EEF1EF091EF1EF0FFFFA9D7
:103D1F00EF1EF0FFFF6250030D010E676E000E687D
:103D2F006EF3506726F45068226C506724D96E00EA
:103D3F000E6820DA6EDF50696E69506A6E6B6ABF6B
:103D4F00EF1EF0FFFF6250030D310E676E000E681D
:103D5F006EF3506726F45068226C506724D96E00BA
:103D6F000E6820DA6EDF50696E69506A6E6B6AFFFB
:103D7F00FF6AC08CFF6C5063248D6E050E676EDF7B
:103D8F000EFFFFE82EFDD7672EFBD76C2A020E6CB5
:103D9F0064D4EF1EF0D7EF1EF0FFFF7FEF1EF0FF92
:103DAF00FF1200FFFFFFFF81EC1DF0FFFF81CF72BD
:103DBF00F072380F0B716E72500F0B706E82500FC6
:103DCF000B6F6E71C05AF070C05BF06F503FEC1FFD
:103DDF00F05A506E6E6E0E606E000E616E71C062A4
:103DEF00F0000E646E000E636E000E666E010E65BF
:103DFF006E7CEC1EF0730E606E000E616E6FC06213
:103E0F00F0000E646E040E636E000E666E010E659A
:103E1F006E7CEC1EF06E0E606E000E616E70C062F6
:103E2F00F0000E646E000E636E000E666E020E657D
:103E3F006E7CEC1EF0730E606E000E616E0B0E62E8
:103E4F006E000E646E040E636E000E666E020E65DB
:103E5F006E7CEC1EF00A0E6D6EBE0EFFFFE82EFD9F
:103E6F00D76D2EFBD700D0DDEF1EF001EF00F0FF76
:103E7F00FF5E6EC2EF1FF0FFFF5BC052F05A500A99
:103E8F00EC1DF052C05AF053C05BF0FDEF1FF0FF76
:103E9F00FF5BC052F05A5031EC1DF052C05AF05334
:103EAF00C05BF0FDEF1FF0FFFF5BC052F05A5013E5
:103EBF00EC1DF052C05AF053C05BF0FDEF1FF0FF46
:103ECF00FF5BC056F05A5045EC1DF056C05AF057E4
:103EDF00C05BF0FDEF1FF0FFFF5BC056F05A505272
:103EEF00EC1DF056C05AF057C05BF0FDEF1FF0FF0E
:103EFF00FF5BC052F05A501DEC1DF052C05AF053E8
:103F0F00C05BF0FDEF1FF0FFFF5BC052F05A502770
:103F1F00EC1DF052C05AF053C05BF0FDEF1FF0FFE5
:103F2F00FF5BC056F05A505FEC1DF056C05AF05769
:103F3F00C05BF0FDEF1FF0FFFF5BC052F05A503B2C
:103F4F00EC1DF052C05AF053C05BF0FDEF1FF0FFB5
:103F5F00FF020E5A18D8B4B7EF1FF0BBEF1FF0FFD8
:103F6F00FF010EBDEF1FF0FFFF000EFFFF5A6E5B4C
:103F7F006AFDEF1FF0FFFF5E505C6E5D6A5D5000E3
:103F8F000AD8B4CDEF1FF0FDEF1FF0FFFF5C50001C
:103F9F000AD8B443EF1FF0010AD8B44FEF1FF00354
:103FAF000AD8B45BEF1FF0010AD8B467EF1FF00710
:103FBF000AD8B473EF1FF0010AD8B47FEF1FF003D4
:103FCF000AD8B48BEF1FF0010AD8B497EF1FF00F88
:103FDF000AD8B4A3EF1FF0010AD8B4FDEF1FF00306
:103FEF000AD8B4AFEF1FF0FDEF1FF0FFFF1200FF75
:013FFF00FFC2
:020000040020DA
:08000000FFFFFFFFFFFFFFFF00
:020000040030CA
:0E000000FF210C0EFF0181FF0FC00FE00F402B
:00000001FF
