:020000040000FA
:0600000000F0FBEF1BF015
:10376E00FFFFFFFF566E565055141200FFFFFFFF6E
:10377E00566E565055101200FFFFFFFF566E5550F5
:10378E00565C1200FFFFFFFF566E56505524120076
:10379E00FFFFFFFF566E565055181200FFFFFFFF3A
:1037AE00566E56505502F3501200FFFFFFFF5A6E31
:1037BE0059C055F05A504CEC1CF01200FFFFFFFFA1
:1037CE00586E57C055F05850B8EC1BF0FF0A120057
:1037DE00FFFFFFFF5A6E59C055F05A5021EC1DF0F5
:1037EE005B6E5B501200FFFFDA0EF66E380EF76E50
:1037FE00000EF86E00EE01F010EE54F00900F5CF59
:10380E00EEFFE550E150FAE1000EF86E00018DEF8B
:10381E001EF0FFFF556E5B0E556018EF1CF01BEF90
:10382E001CF0FFFF27EF1CF0FFFF400E556422EF48
:10383E001CF025EF1CF0FFFF27EF1CF0FFFF558A51
:10384E00FFFF55501200FFFFFFFF060EC16E000E68
:10385E00926E000E896E000E806E9368000E8A6E58
:10386E0081689468000E8B6E000E826E000E956E4F
:10387E00000E8C6E000E836E000E966E000E8D6E18
:10388E00000E846E1200FFFFFFFFFFFF566E080E44
:10389E00576E000E586EFFFFD89056345834586E3F
:1038AE00D89056365550585CD8A060EF1CF063EF98
:1038BE001CF0FFFF66EF1CF0FFFF5550585EFFFF38
:1038CE00572E52EF1CF058501200FFFFF888F840A8
:1038DE00F8F8B8A8E8A8A8F8E020F8E8A8B8F8A87A
:1038EE00B88080F8F8A8F8E0A0F8F8A0F8F8283822
:1038FE00F888883828F8F8A8A8F8A0A0207020200A
:10390E002020502050102040702070204020402059
:10391E004050605060506080F880505050F8B0E8D1
:10392E00FFFF5B6E020E5C6EB2EF1CF0FFFF5CC021
:10393E0059F05B50DDEC1BF00009D8A4A9EF1CF088
:10394E00ACEF1CF0FFFFB0EF1CF0FFFF010EBFEF5E
:10395E001CF0FFFF5C2AFFFF5B505C5CD8A0BAEF47
:10396E001CF0BDEF1CF0FFFF9DEF1CF0FFFF000EE3
:10397E00FFFF1200FFFFFFFF0E0E566E000E576E7A
:10398E00010E586E6E0E5CEC1DF00B0E566E040E94
:10399E00576E010E586E730E5CEC1DF00E0E566EC9
:1039AE00000E576E020E586E6E0E5CEC1DF00B0E76
:1039BE00566E040E576E020E586E730E5CEC1DF0B2
:1039CE00050E616EDF0EFFFFE82EFDD7612EFBD7D1
:1039DE001200FFFFFFFF646E64C056F0000E576EBC
:1039EE00010E586E6E0E5CEC1DF062C056F0040EA9
:1039FE00576E010E586E730E5CEC1DF061C056F0E2
:103A0E00000E576E020E586E6E0E5CEC1DF00A0E16
:103A1E00566E040E576E020E586E730E5CEC1DF051
:103A2E00050E636EDF0EFFFFE82EFDD7632EFBD76C
:103A3E001200FFFFFFFF566E000E586E5550D8B4A1
:103A4E002BEF1DF02EEF1DF0FFFF58EF1DF0FFFFC7
:103A5E00010E576E37EF1DF0FFFFD8905536572ADF
:103A6E00FFFF55AE3DEF1DF040EF1DF0FFFF33EFB2
:103A7E001DF0FFFFFFFFD89058365550565CD8A06A
:103A8E004BEF1DF04EEF1DF0FFFF52EF1DF0FFFF4D
:103A9E005550565E5880FFFFD8905532572E41EF45
:103AAE001DF0FFFF58501200FFFFFFFF5D6E000E6E
:103ABE00606EFFFF605057C059F05A6A5926000ECB
:103ACE005A225ABE74EF1DF05A500AE1070E595C85
:103ADE00D8A074EF1DF077EF1DF0FFFF7AEF1DF009
:103AEE00FFFFE3EF1DF0FFFF5804D8A481EF1DF098
:103AFE0084EF1DF0FFFF89EF1DF0FFFF8986899A85
:103B0E008CEF1DF0FFFF8996898AFFFF5D5010EC48
:103B1E001CF0730AD8B496EF1DF099EF1DF0FFFF5D
:103B2E00B3EF1DF0FFFF5650030D010E596E000E40
:103B3E005A6EF3505926F4505A2260505924D96EB9
:103B4E00000E5A20DA6EDF505B6E5C6A5B1C5E6E96
:103B5E005C1C5F6ECBEF1DF0FFFF5650030D310E58
:103B6E00596E000E5A6EF3505926F4505A22605078
:103B7E005924D96E000E5A20DA6EDF505B6E5C6AE5
:103B8E005B1C5E6E5C1C5F6EFFFF5EC08CFF605048
:103B9E0057248D6E050E596EDF0EFFFFE82EFDD7F2
:103BAE00592EFBD7602A020E6064E0EF1DF0E3EFA2
:103BBE001DF0FFFF60EF1DF0FFFF1200FFFFFFFF84
:103BCE005F6E5AEF1EF0FFFF5EC055F05D50CAECFF
:103BDE001BF08AEF1EF0FFFF5EC055F05D50C4EC87
:103BEE001BF08AEF1EF0FFFF5EC055F05D50D6EC65
:103BFE001BF08AEF1EF0FFFF5EC059F05D50F0EC37
:103C0E001BF08AEF1EF0FFFF5EC059F05D50DDEC39
:103C1E001BF08AEF1EF0FFFF5EC055F05D50B8EC52
:103C2E001BF08AEF1EF0FFFF5EC055F05D50BEEC3C
:103C3E001BF08AEF1EF0FFFF5EC057F05D50E6EC02
:103C4E001BF08AEF1EF0FFFF5EC055F05D50D0EC0A
:103C5E001BF08AEF1EF0FFFF5D5097EC1CF08AEF11
:103C6E001EF0FFFF020E5D18D8A440EF1EF043EFCA
:103C7E001EF0FFFF56EF1EF0FFFF020E596E5E5054
:103C8E00DDEC1BF00009D8A44FEF1EF052EF1EF032
:103C9E00FFFF56EF1EF0FFFF010E8AEF1EF0FFFF33
:103CAE00000E8AEF1EF0FFFF5F50000AD8B4EAEF55
:103CBE001DF0010AD8B4F2EF1DF0030AD8B4FAEFE2
:103CCE001DF0010AD8B402EF1EF0070AD8B40AEFAD
:103CDE001EF0010AD8B412EF1EF0030AD8B41AEF80
:103CEE001EF0010AD8B422EF1EF00F0AD8B42AEF44
:103CFE001EF0010AD8B432EF1EF0030AD8B438EF22
:103D0E001EF08AEF1EF0FFFF1200FFFFFFFF2BECED
:103D1E001CF0FFFF81380F0B736E81500F0B746E0A
:103D2E0082500F0B726E000E6D6EFFFF74C061F04D
:103D3E0072C062F07350F1EC1CF06D2AC70E6D6408
:103D4E00ABEF1EF0AEEF1EF0FFFF9CEF1EF0FFFF7D
:103D5E00000E6E6EC0EF1FF0FFFF73C05DF074C0FB
:103D6E005EF07250E6EC1DF0716E71C056F0000EF2
:103D7E00576E010E586E6E0E5CEC1DF0F0EF1FF0DC
:103D8E00FFFF7450735CD8A0CFEF1EF0D2EF1EF081
:103D9E00FFFFE0EF1EF0FFFF73C05DF074C05EF03A
:103DAE007250E6EC1DF0656E6550666E676AECEF5C
:103DBE001EF0FFFF74C05DF073C05EF07250E6EC53
:103DCE001DF0656E6550666E676AFFFF66C071F026
:103DDE00000E6F6E7450735CD8B0F8EF1EF0FBEFF0
:103DEE001EF0FFFF07EF1FF0FFFF010E566E000ED5
:103DFE00576E010E586E730E5CEC1DF0030E6F269F
:103E0E00FFFF71C056F06FC057F0010E586E6E0E68
:103E1E005CEC1DF0F0EF1FF0FFFF7450D8A41AEF0A
:103E2E001FF01DEF1FF0FFFF22EF1FF0FFFFC2EC90
:103E3E001CF0F0EF1FF0FFFF73C05DF074C05EF07A
:103E4E007250E6EC1DF0716E71C056F0000E576E9A
:103E5E00010E586E6E0E5CEC1DF0F0EF1FF0FFFFC2
:103E6E00FFFF73C05DF074C05EF07250E6EC1DF0A3
:103E7E00716E71C065F00F0E651665506B6E6C6AD3
:103E8E006BC056F0000E576E010E586E6E0E5CEC47
:103E9E001DF0F0EF1FF0FFFF73C05DF074C05EF019
:103EAE007250E6EC1DF0716E7150D8A461EF1FF0E8
:103EBE0064EF1FF0FFFF6BEF1FF0FFFF000E6C6E45
:103ECE000F0E6B6E70EF1FF0FFFF000E6C6E090E83
:103EDE006B6EFFFF7150D8A477EF1FF07AEF1FF0D3
:103EEE00FFFF81EF1FF0FFFF000E696E6E0E686E12
:103EFE0086EF1FF0FFFF000E696E730E686EFFFFF8
:103F0E0068C06AF06BC056F0000E576E010E586E08
:103F1E006A505CEC1DF0F0EF1FF0FFFF000E706EAC
:103F2E00FFFF010E566E000E576E7028586E730E00
:103F3E005CEC1DF0010E566E030E576E7028586E17
:103F4E00730E5CEC1DF0010E566E060E576E702849
:103F5E00586E730E5CEC1DF0702A010E7064BAEF91
:103F6E001FF0BDEF1FF0FFFF97EF1FF0FFFFF0EF09
:103F7E001FF0FFFF7250000AD8B4B3EF1EF0010A13
:103F8E00D8B4C7EF1EF0030AD8B4B3EF1EF0010A7F
:103F9E00D8B413EF1FF0070AD8B413EF1FF0010ABD
:103FAE00D8B436EF1FF0030AD8B437EF1FF0010A6A
:103FBE00D8B437EF1FF00F0AD8B437EF1FF0010A4D
:103FCE00D8B452EF1FF0030AD8B452EF1FF094EF9B
:103FDE001FF0FFFF6E2AC70E6E64F8EF1FF0FBEFA7
:103FEE001FF0FFFFC0EF1FF0FFFF90EF1EF001EF7D
:023FFE0000F0D1
:020000040020DA
:08000000FFFFFFFFFFFFFFFF00
:020000040030CA
:0E000000FF210C0EFF0181FF0FC00FE00F402B
:00000001FF
