:020000040000FA
:0600000000F0F8EF1CF017
:10394E00FFFFFFFF566E565055141200FFFFFFFF8C
:10395E00566E565055101200FFFFFFFF566E555013
:10396E00565C1200FFFFFFFF566E56505524120094
:10397E00FFFFFFFF566E565055181200FFFFFFFF58
:10398E00566E56505502F3501200FFFFFFFF5A6E4F
:10399E0059C055F05A500DEC1DF01200FFFFFFFFFD
:1039AE00586E57C055F05850A8EC1CF0FF0A120084
:1039BE00FFFFFFFF5A6E59C055F05A5062EC1DF0D2
:1039CE005B6E5B501200FFFFFFFF556E5B0E556086
:1039DE0004D0400E556401D0558AFFFF5550120099
:1039EE00FFFF0C0EF66E3B0EF76E000EF86E00EE3D
:1039FE0001F010EE54F00900F5CFEEFFE550E15066
:103A0E00FAE1000EF86E0001E6EF1EF0FFFF566EB3
:103A1E00080E576E000E586EFFFFD890563458346D
:103A2E00586ED89056365550585CD8A002D0555086
:103A3E00585EFFFF572EF0D758501200FFFFFFFFC2
:103A4E005B6E020E5C6E0DD0FFFF5CC059F05B50DA
:103A5E00CDEC1CF00009D8A402D0010E08D0FFFF57
:103A6E005C2AFFFF5B505C5CD8A0EED7000EFFFF18
:103A7E001200FFFFFFFF060EC16E000E926E000ECB
:103A8E00896E000E806E9368000E8A6E816894684F
:103A9E00000E8B6E000E826E000E956E000E8C6EFA
:103AAE00000E836E000E966E000E8D6E000E846EEE
:103ABE001200FFFFFFFFFFFF566E000E586E5550AF
:103ACE00D8B419D0010E576E04D0FFFFD8905536DA
:103ADE00572AFFFF55AEF9D7FFFFD89058365550ED
:103AEE00565CD8A003D05550565E5880FFFFD89034
:103AFE005532572EF1D7FFFF58501200FFFFF888AE
:103B0E00F840F8F8B8A8E8A8A8F8E020F8E8A8B8AF
:103B1E00F8A8B88080F8F8A8F8E0A0F8F8A0F8F8AF
:103B2E002838F888883828F8F8A8A8F8A0A02070B7
:103B3E002020202050205010204070207020402047
:103B4E0040204050605060506080F880505050F8D7
:103B5E00B0E8FFFF0E0E566E000E576E010E586E39
:103B6E006E0E0FEC1EF00B0E566E040E576E010EFF
:103B7E00586E730E0FEC1EF00E0E566E000E576E34
:103B8E00020E586E6E0E0FEC1EF00B0E566E040EDD
:103B9E00576E020E586E730E0FEC1EF0050E616E10
:103BAE00DF0EFFFFE82EFDD7612EFBD71200FFFFC1
:103BBE00FFFF646E64C056F0000E576E010E586E15
:103BCE006E0E0FEC1EF062C056F0040E576E010E14
:103BDE00586E730E0FEC1EF061C056F0000E576E4D
:103BEE00020E586E6E0E0FEC1EF00A0E566E040E7E
:103BFE00576E020E586E730E0FEC1EF0050E636EAE
:103C0E00DF0EFFFFE82EFDD7632EFBD71200FFFF5E
:103C1E00FFFF5D6E000E606EFFFF605057C059F0E3
:103C2E005A6A5926000E5A225ABE06D05A5046E1FA
:103C3E00070E595CD8B041D0FFFF5804D8A403D06A
:103C4E008986899A03D0FFFF8996898AFFFF5D5086
:103C5E00EBEC1CF0730AD8B406D05650030D010ECF
:103C6E00596E000E06D0FFFF5650030D310E596EE1
:103C7E00000EFFFF5A6EF3505926F4505A22605030
:103C8E005924D96E000E5A20DA6EDF505B6E5C6AD4
:103C9E005B1C5E6E5C1C5F6E5EC08CFF60505724BA
:103CAE008D6E050E596EDF0EFFFFE82EFDD7592ED5
:103CBE00FBD7602A020E6064AFD7FFFF1200FFFF32
:103CCE00FFFF5F6E56D0FFFF5EC055F05D50BAEC41
:103CDE001CF072D0FFFF5EC055F05D50B4EC1CF0CE
:103CEE006BD0FFFF5EC055F05D50C6EC1CF064D08B
:103CFE00FFFF5EC059F05D50E0EC1CF05DD0FFFFA1
:103D0E005EC059F05D50CDEC1CF056D0FFFF5EC08A
:103D1E0055F05D50A8EC1CF04FD0FFFF5EC055F083
:103D2E005D50AEEC1CF048D0FFFF5EC057F05D500A
:103D3E00D6EC1CF041D0FFFF5EC055F05D50C0ECDC
:103D4E001CF03AD0FFFF5D5026EC1DF035D0FFFF82
:103D5E00020E5D18D8A40AD0020E596E5E50CDEC3C
:103D6E001CF00009D8A402D0010E26D0FFFF000ED1
:103D7E0023D0FFFF5F50000AD8B4A5D7010AD8B4EC
:103D8E00A9D7030AD8B4ADD7010AD8B4B1D7070A58
:103D9E00D8B4B5D7010AD8B4B9D7030AD8B4BDD7A9
:103DAE00010AD8B4C1D70F0AD8B4C5D7010AD8B4FE
:103DBE00C9D7030AD8B4CBD7FFFF1200FFFFFFFF0E
:103DCE0041EC1DF0FFFF81380F0B736E81500F0B0E
:103DDE00746E82500F0B726E000E6D6EFFFF74C00C
:103DEE0061F072C062F07350DFEC1DF06D2AC70EE9
:103DFE006D64F4D7000E6E6ED2D0FFFF73C05DF00F
:103E0E0074C05EF0725067EC1EF0716E71C056F0A9
:103E1E00000E576E010E586E6E0E0FEC1EF0E3D0B4
:103E2E00FFFF7450735CD8A008D073C05DF074C0EF
:103E3E005EF0725067EC1EF008D0FFFF74C05DF0AC
:103E4E0073C05EF0725067EC1EF0FFFF656E65503A
:103E5E00666E676A66C071F0000E6F6E7450735CAA
:103E6E00D8B00BD0010E566E000E576E010E586E66
:103E7E00730E0FEC1EF0030E6F26FFFF71C056F08F
:103E8E006FC057F0010E586E6E0E0FEC1EF0ABD0D9
:103E9E00FFFF7450D8A403D0B0EC1DF0A4D0FFFFE8
:103EAE0073C05DF074C05EF0725067EC1EF0716E00
:103EBE0071C056F0000E576E010E586E6E0E0FEC5E
:103ECE001EF091D0FFFF73C05DF074C05EF07250B3
:103EDE0067EC1EF0716E71C065F00F0E65166550C1
:103EEE006B6E6C6A6BC056F0000E576E010E586EFC
:103EFE006E0E0FEC1EF077D0FFFF73C05DF074C036
:103F0E005EF0725067EC1EF0716E7150D8A404D042
:103F1E00000E6C6E0F0E04D0FFFF000E6C6E090EBD
:103F2E00FFFF6B6E7150D8A404D0000E696E6E0E3A
:103F3E0004D0FFFF000E696E730EFFFF686E68C03F
:103F4E006AF06BC056F0000E576E010E586E6A5036
:103F5E000FEC1EF048D0FFFF000E706EFFFF010E3B
:103F6E00566E000E576E7028586E730E0FEC1EF0C4
:103F7E00010E566E030E576E7028586E730E0FECB0
:103F8E001EF0010E566E060E576E7028586E730E8A
:103F9E000FEC1EF0702A010E7064E0D724D0FFFFE4
:103FAE007250000AD8B429D7010AD8B439D7030AF7
:103FBE00D8B423D7010AD8B46BD7070AD8B468D7B8
:103FCE00010AD8B47FD7030AD8B47CD7010AD8B473
:103FDE0079D70F0AD8B476D7010AD8B48DD7030A89
:103FEE00D8B48AD7B8D7FFFF6E2AC70E6E64D7D75C
:023FFE00E9D602
:020000040020DA
:08000000FFFFFFFFFFFFFFFF00
:020000040030CA
:0E000000FF210C0EFF0181FF0FC00FE00F402B
:00000001FF
