:020000040000FA
:0600000000F00FEF00F01C
:10000800FFFF76829EAA03D0AECFF0F09E9AFFFF44
:1000180076921100FFFFA9EF15F0FFFF510E5D6EFC
:10002800000E5E6E2BEF05F0FFFF250E7318D8B497
:100038000BD04DC0D9FF4EC0DAFF73C0DFFFFFFF02
:100048004D4A4E2A2BEF05F0FFFF000E6C6E000E96
:100058006B6E000E6A6E000E696E04D0FFFF698435
:100068004F4A502AFFFF4FC0F6FF50C0F7FF080065
:10007800FFFFF550300AD8B4F1D74FC0F6FF50C093
:10008800F7FF0800FFFFF550F4EC15F0D8A035D0C5
:10009800000E6C6E000E6B6EFFFF6BC001F06CC043
:1000A80002F0000E046E0A0E036EDFEC15F001C0BC
:1000B8006BF002C06CF0D00E556EFF0E566E4FC03E
:1000C800F6FF50C0F7FF0800FFFFF550576E586A5B
:1000D800555057265650582257506B2658506C2268
:1000E8004F4A502A4FC0F6FF50C0F7FF0800FFFFE5
:1000F800F550F4EC15F0D8B0CFD7FFFF4FC0F6FF9E
:1001080050C0F7FF0800FFFFF5502E0AD8A432D0E0
:100118006A8C4F4A502A000E726E000E716E1DD006
:10012800FFFF71C001F072C002F0000E046E0A0EEB
:10013800036EDFEC15F04FC0F6FF50C0F7FF080064
:10014800FFFFF5500126000E0222D00E0124716E29
:10015800FF0E0220726E4F4A502AFFFF4FC0F6FF73
:1001680050C0F7FF0800FFFFF550F4EC15F0D8A0D9
:100178000BD0D6D7FFFF000E726E000E716E6A8824
:1001880003D0FFFF6A8415D0FFFF4FC0F6FF50C0B1
:10019800F7FF4F4A502A0800FFFFF5CF73F073505E
:1001A800000AD8B43AEF05F0660AD8B4EAD72BEFBC
:1001B80005F0FFFF070E6A14D8B48BD36AA804D0E1
:1001C800000E726E060E716EFFFF5DC0D9FF5EC035
:1001D800DAFFDECF6DF0DECF6EF0DECF6FF0DECF70
:1001E80070F0040E5D26000E5E2270AE14D06DC055
:1001F80001F06EC002F06FC003F070C004F0C5ECEF
:1002080015F001C06DF002C06EF003C06FF004C0BD
:1002180070F0030E6912FFFF000E686E000E676E25
:100228006DC001F06EC002F06FC003F070C004F042
:10023800000E056E000E066E000E076E000E086EAC
:1002480008EC13F0D8B081D06F347034820F676E29
:10025800686AFF0E68226706D8A0680667C001F0C2
:1002680068C002F0000E046E030E036EDFEC15F09A
:1002780001C067F002C068F067C007F068C008F006
:10028800000E0A6E0A0E096EBCEC12F007C067F089
:1002980008C068F068AE03D06706D8A06806FFFFFC
:1002A8006750000893EC07F028C063F029C064F099
:1002B8002AC065F02BC066F063C00FF064C010F070
:1002C80065C011F066C012F06DC013F06EC014F076
:1002D8006FC015F070C016F09BEC09F00FC063F00A
:1002E80010C064F011C065F012C066F063C001F080
:1002F80064C002F065C003F066C004F0000E056E2D
:10030800000E066E800E076E3F0E086EE2EC11F0CE
:10031800D8B004D06706D8A0680617D0FFFF63C01E
:1003280001F064C002F065C003F066C004F0000E7E
:10033800056E000E066E200E076E410E086EE2EC8A
:1003480011F0D8A002D0674A682AFFFF72BE06D013
:10035800725022E10D0E715CD8B01ED0FFFF6DC047
:1003680035F06EC036F06FC037F070C038F071509D
:100378005EEC0EF028C039F029C03AF02AC03BF0F4
:100388002BC03CF05CEC0BF035C06DF036C06EF065
:1003980037C06FF038C070F0FFFF68BE06D06850F5
:1003A80031E10A0E675CD8B02CD0FFFF6DC001F0B8
:1003B8006EC002F06FC003F070C004F0000E056E4E
:1003C800000E066E000E076E000E086E08EC13F0A5
:1003D800D8B062D06DC031F06EC032F06FC033F06B
:1003E80070C034F052EC12F0315032103310341027
:1003F800D8B468BE51D0685004E1020E675CD8A03A
:100408004BD0FFFF63C001F064C002F065C003F089
:1004180066C004F05F0E056E700E066E890E076EDC
:10042800400E086EE2EC11F0D8B002D0F70E02D000
:10043800FFFFF80EFFFF6726FF0E6822675093EC58
:1004480007F028C063F029C064F02AC065F02BC00B
:1004580066F06DC001F06EC002F06FC003F070C0AE
:1004680004F063C005F064C006F065C007F066C01C
:1004780008F0E9EC10F001C05FF002C060F003C0C2
:1004880061F004C062F0000E6D6E000E6E6E000E1C
:100498006F6E000E706E3CD0FFFF6DC031F06EC005
:1004A80032F06FC033F070C034F052EC12F031C04B
:1004B8005FF032C060F033C061F034C062F06DC0EC
:1004C80045F06EC046F06FC047F070C048F05FC09E
:1004D80001F060C002F061C003F062C004F0000ED9
:1004E800B0EC0FF001C049F002C04AF003C04BF075
:1004F80004C04CF065EC15F045C06DF046C06EF0D8
:1005080047C06FF048C070F0000E686E000E676E4E
:10051800FFFF010E736EFFFF7350040D690EF32485
:10052800F66E7E0EF420F76E0900FFFFF5505F5C53
:100538000900FFFFF55060580900FFFFF5506158AA
:100548000900FFFFF5506258D8A005D0732A0A0E9B
:100558007318D8A4E0D7FFFF73507124556E000EAE
:100568007220566E675055266850562255506B5E5D
:1005780056506C5A71507210D8B403D06B06D8A07C
:100588006C06FFFF030E6914556E000E6A14566E52
:1005980055505610D8B403D06B06D8A06C06FFFF90
:1005A80069A434D0030E6914556E000E6A14566E91
:1005B80055505610D8B415D04DC0D9FF4EC0DAFFEB
:1005C8002D0EDF6E4D4A4E2A0CD0FFFF4DC0D9FFCD
:1005D8004EC0DAFF300EDF6E4D4A4E2A6B06D8A0A9
:1005E8006C06FFFF6CBE7BD06C50EFE16B04D8A0AB
:1005F80076D0EBD7FFFF4DC0D9FF4EC0DAFF200EF3
:10060800DF6E4D4A4E2A6B06D8A06C06FFFF6CBE03
:1006180005D06C50EFE16B04D8B0ECD7FFFF030EA8
:100628006914556E000E6A14566E55505610D8B49B
:1006380056D04DC0D9FF4EC0DAFF2D0EFFFFDF6E3A
:100648004D4A4E2A4CD0FFFF5FC001F060C002F057
:1006580061C003F062C004F07350040D690EF32406
:10066800F66E7E0EF420F76E0900FFFFF5CF05F059
:100678000900FFFFF5CF06F00900FFFFF5CF07F0EF
:100688000A00FFFFF5CF08F053EC13F001C063F048
:1006980002C064F003C065F004C066F063C001F0F6
:1006A80064C002F065C003F066C004F00A0E056E6F
:1006B800000E066E000E076E000E086EDDEC13F0DD
:1006C80001C063F002C064F003C065F004C066F0C6
:1006D8006350300F4DC0D9FF4EC0DAFFAFD7FFFFD0
:1006E80073067328D8B40DD0AED7FFFF4DC0D9FF1D
:1006F8004EC0DAFF300EDF6E4D4A4E2A6706D8A08C
:100708006806FFFF68BE05D06850EFE16704D8B0FF
:10071800ECD7FFFF72BE09D0725004E1090E715C7C
:10072800D8A003D0080E736E03D0FFFF71C073F01A
:10073800FFFF7350715E000E725A7350D8B408D020
:100748004DC0D9FF4EC0DAFF2E0EDF6E4D4A4E2A3D
:10075800FFFF735093EC07F028C059F029C05AF0F6
:100768002AC05BF02BC05CF06DC013F06EC014F0B3
:100778006FC015F070C016F059C00FF05AC010F0D5
:100788005BC011F05CC012F09BEC09F00FC031F0B7
:1007980010C032F011C033F012C034F052EC12F035
:1007A80031C05FF032C060F033C061F034C062F035
:1007B80078D0FFFF5FC001F060C002F061C003F0B5
:1007C80062C004F07350040D690EF324F66E7E0EB9
:1007D800F420F76E0900FFFFF5CF05F00900FFFFD1
:1007E800F5CF06F00900FFFFF5CF07F00A00FFFF7D
:1007F800F5CF08F053EC13F001C063F002C064F0C9
:1008080003C065F004C066F063C001F064C002F084
:1008180065C003F066C004F00A0E056E000E066E91
:10082800000E076E000E086EDDEC13F001C063F0D9
:1008380002C064F003C065F004C066F06350300F76
:100848004DC0D9FF4EC0DAFFDF6E4D4A4E2A5FC059
:1008580001F060C002F061C003F062C004F07350A0
:10086800040D690EF324F66E7E0EF420F76E09006F
:10087800FFFFF5CF05F00900FFFFF5CF06F00900EF
:10088800FFFFF5CF07F00A00FFFFF5CF08F0DDEC1A
:1008980013F001C05FF002C060F003C061F004C053
:1008A80062F0FFFF73067328D8B40DD082D7FFFF1C
:1008B8004DC0D9FF4EC0DAFF300EDF6E4D4A4E2ACA
:1008C8007106D8A07206FFFF71507210D8B4BFD05D
:1008D800EED7FFFF71507210D8A408D05F50601097
:1008E80061106210D8A402D0714A722AFFFF7350B7
:1008F800556E566A7150555C5650800A576E725044
:10090800800A5758D8B003D071C073F011D0FFFFD8
:100918007350556E566A5550715C7250800A576E06
:100928005650800A5758D8B003D073C071F0726A15
:10093800FFFF6B506C10D8B40DD0030E6914556EC0
:10094800000E6A14566E55505610D8B403D06B0674
:10095800D8A06C06FFFF6AAC14D06B50715C725063
:10096800800A556E6C50800A5558D8B005D0715021
:100978006B5E72506C5A05D0FFFF000E6C6E000E55
:100988006B6EFFFF7350556E566A6B50555C565030
:10099800800A576E6C50800A5758D8B005D07350EB
:1009A8006B5E000E6C5A05D0FFFF000E6C6E000ED9
:1009B8006B6EFFFF69A423D0030E6914556E000EF9
:1009C8006A14566E55505610D8B408D04DC0D9FF89
:1009D8004EC0DAFF2D0EDF6E4D4A4E2AFFFF6B50D8
:1009E8006C10D8B434D04DC0D9FF4EC0DAFF300EE9
:1009F800DF6E4D4A4E2A6B06D8A06C06EFD7FFFF74
:100A08006B506C10D8B410D0FFFF4DC0D9FF4EC04A
:100A1800DAFF200EDF6E4D4A4E2A6B06D8A06C0610
:100A28006B506C10D8A4F0D7FFFF030E6914556EF5
:100A3800000E6A14566E55505610D8B408D04DC0E2
:100A4800D9FF4EC0DAFF2D0EDF6E23EF00F0FFFF57
:100A58004FC0F6FF50C0F7FF4F4A502A0800FFFF6B
:100A6800F5CF73F07350D8A418EF00F0FFFF4DC016
:100A7800D9FF4EC0DAFF000EDF6E1200FFFFFFFF46
:100A88008AEC15F006EC16F0EBEC14F0E10E056EAE
:100A98007F0E066E800E076E17EC14F0D30E056EEF
:100AA8007F0E066EC00E076E17EC14F00C0E756EF6
:100AB8006C0E746EF30EFFFFE82EFDD7742EFBD775
:100AC800752EF9D7010E26EC16F0000E0001FFFF77
:100AD800D06FD051D8A404D0000EC76F410E04D0F7
:100AE800FFFF000EC76F490EFFFFC66FC6C0C2FFEB
:100AF800050EFFFFE82EFDD7C284FFFFC2B4FDD765
:100B0800C350C4CF74F0756A74C075F0746A7410F9
:100B18000001CE6F7550CF6F310E746EBB0EFFFFA4
:100B2800E82EFDD7742EFBD720EEB2F0130EDE6A46
:100B3800E806FDE20001D051D8A421D0CEC041F092
:100B4800CFC042F050EC14F041C0E9F042C0EAF0E6
:100B580043C0EBF044C0ECF0B20E4D6E000E4E6E8A
:100B68003A0E4F6E7F0E506EE9C051F0EAC052F057
:100B7800EBC053F0ECC054F011EC00F021D0FFFFB3
:100B8800CEC045F0CFC046F06FEC11F045C0E5F09F
:100B980046C0E6F047C0E7F048C0E8F0B20E4D6E38
:100BA800000E4E6E270E4F6E7F0E506EE5C051F050
:100BB800E6C052F0E7C053F0E8C054F011EC00F082
:100BC800FFFF330E016E330E026E730E036E400E7E
:100BD800046EE9C005F0EAC006F0EBC007F0ECC00F
:100BE80008F0E2EC11F0D8B02ED0C40E056E7F0EDE
:100BF800066E800E076E17EC14F0920E056E7F0ECF
:100C0800066EC00E076E17EC14F043EC16F0010EDA
:100C18000001CB6FEE51D8B406D0310EED19D8A42F
:100C280002D0000ECB6FFFFFCBC0EFF0310EED6F9F
:100C3800000E4D6E010E4E6ECC0E4F6E7E0E506E37
:100C480011EC00F0BCD0FFFFE10E016E7A0E026ECF
:100C5800940E036E3E0E046EE9C005F0EAC006F07D
:100C6800EBC007F0ECC008F0E2EC11F0D8A042D0DD
:100C7800E5C001F0E6C002F0E7C003F0E8C004F008
:100C8800000E056E000E066E740E076E420E086E9C
:100C9800E2EC11F0D8A02ED0810E056E7F0E066E04
:100CA800800E076E17EC14F0A30E056E7F0E066E0D
:100CB800C00E076E17EC14F039EC16F0010E0001A7
:100CC800CC6FEE51D8B406D0320EED19D8A402D0AC
:100CD800000ECC6FFFFFCCC0EFF0320EED6F000EB0
:100CE8004D6E010E4E6E910E4F6E7E0E506E11ECD3
:100CF80000F065D0FFFFE5C001F0E6C002F0E7C0F4
:100D080003F0E8C004F0000E056E000E066EA00E9B
:100D1800076E400E086EE2EC11F0D8B02ED0B40E7B
:100D2800056E7F0E066E800E076E17EC14F0700EBF
:100D3800056E7F0E066EC00E076E17EC14F03EECC3
:100D480016F0010E0001CD6FEE51D8B406D0330E67
:100D5800ED19D8A402D0000ECD6FFFFFCDC0EFF083
:100D6800330EED6F000E4D6E010E4E6EE40E4F6E9B
:100D78007E0E506E11EC00F022D0FFFF0001D05122
:100D8800D8B404D0000EC96FC00E04D0FFFF000E07
:100D9800C96F800EFFFFC86FC8C0CAF0B20E056EDB
:100DA800000E066ECAC007F017EC14F034EC16F00B
:100DB800000E0001EF6F000EEE6F300EED6FFFFFBB
:100DC8000001F151D8A47CD0800E4D6E000E4E6EFD
:100DD8005F0E4F6E7F0E506EE9C051F0EAC052F0C0
:100DE800EBC053F0ECC054F011EC00F0990E4D6ECE
:100DF800000E4E6E120E4F6E7F0E506EE5C051F013
:100E0800E6C052F0E7C053F0E8C054F011EC00F02F
:100E18000001EF51D8B41BD0000E056E010E066E0E
:100E280088EC14F0990E056E000E066E88EC14F02E
:100E3800800E056E000E066E88EC14F0FB0E056E33
:100E48007F0E066E88EC14F0010E0001EE6FFFFFB6
:100E5800F051D8B451D0740EF019D8A407D0990E17
:100E6800056E000E066E88EC14F025D0FFFF760E96
:100E7800F019D8A407D0800E056E000E066E88EC17
:100E880014F019D0FFFF780EF019D8A40DD0990EE0
:100E9800056E000E066E88EC14F0800E056E000ECE
:100EA800066E88EC14F007D0FFFF4D0E056E7F0E1E
:100EB800066E88EC14F0FFFF000E0001F06F1CD0E6
:100EC800FFFFEF0E056E7F0E066E88EC14F0B20E73
:100ED800056E7E0E066E88EC14F0FC0E056E7E0E16
:100EE800066E88EC14F0FC0E056E7F0E066E88EC1C
:100EF80014F0000E0001F16FFFFF0A0E746EBE0EB3
:100F0800FFFFE82EFDD7742EFBD700D00001D0518B
:100F1800D8A402D0010EDBD5FFFF000ED8D5FFFF05
:100F2800306E30AEFBD0306C3050800A120FD8A033
:100F38008CD0000E0A6E0A0E096E000E046E640E46
:100F4800036E3050016E026A01BE02069BEC13F07C
:100F580001C007F002C008F0BCEC12F0090E072629
:100F68000750040D350EF324F66E7E0EF420F76E4E
:100F78000900FFFFF5CF13F00900FFFFF5CF14F0CC
:100F88000900FFFFF5CF15F00A00FFFFF5CF16F0B7
:100F9800000E0A6E640E096E3050076E086A07BEAE
:100FA8000806BCEC12F0120E07260750040D350E89
:100FB800F324F66E7E0EF420F76E0900FFFFF5CFDE
:100FC8000FF00900FFFFF5CF10F00900FFFFF5CF84
:100FD80011F00A00FFFFF5CF12F09BEC09F00FC0EB
:100FE8002CF010C02DF011C02EF012C02FF02CC024
:100FF8000FF02DC010F02EC011F02FC012F0000E0F
:10100800046E0A0E036E3050016E026A01BE0206BB
:101018009BEC13F00150040D350EF324F66E7E0E92
:10102800F420F76E0900FFFFF5CF13F00900FFFF6A
:10103800F5CF14F00900FFFFF5CF15F00A00FFFF08
:10104800F5CF16F09BEC09F04BD1FFFF3050800A2A
:10105800750FD8A04BD0000E0A6E0A0E096E3050DC
:10106800076E086A07BE0806BCEC12F0090E0726D0
:101078000750040D350EF324F66E7E0EF420F76E3D
:101088000900FFFFF5CF0FF00900FFFFF5CF10F0C3
:101098000900FFFFF5CF11F00A00FFFFF5CF12F0AE
:1010A800000E046E0A0E036E3050016E026A01BE15
:1010B80002069BEC13F00150040D350EF324F66E76
:1010C8007E0EF420F76E0900FFFFF5CF13F009003C
:1010D800FFFFF5CF14F00900FFFFF5CF15F00A0068
:1010E800FFFFF5CF16F09BEC09F0FAD0FFFF305068
:1010F800040D350EF324F66E7E0EF420F76E09000B
:10110800FFFFF5CF28F00900FFFFF5CF29F0090010
:10111800FFFFF5CF2AF00A00FFFF03D1FFFF305091
:10112800800A120FD8A08CD0000E0A6E0A0E096E23
:10113800000E046E640E036E3050016E026A01BE2A
:1011480002069BEC13F001C007F002C008F0BCECEB
:1011580012F0090E07260750040D010EF324F66E4F
:101168007E0EF420F76E0900FFFFF5CF13F009009B
:10117800FFFFF5CF14F00900FFFFF5CF15F00A00C7
:10118800FFFFF5CF16F0000E0A6E640E096E3050A0
:10119800076E086A07BE0806BCEC12F0120E072696
:1011A8000750040D010EF324F66E7E0EF420F76E40
:1011B8000900FFFFF5CF0FF00900FFFFF5CF10F092
:1011C8000900FFFFF5CF11F00A00FFFFF5CF12F07D
:1011D8009BEC09F00FC02CF010C02DF011C02EF0C0
:1011E80012C02FF02CC00FF02DC010F02EC011F03F
:1011F8002FC012F0000E046E0A0E036E3050016EFE
:10120800026A01BE02069BEC13F00150040D010EA8
:10121800F324F66E7E0EF420F76E0900FFFFF5CF7B
:1012280013F00900FFFFF5CF14F00900FFFFF5CF19
:1012380015F00A00FFFFF5CF16F09BEC09F050D02F
:10124800FFFF3050800A750FD8A054D0000E0A6EE8
:101258000A0E096E3050076E086A07BE0806BCEC15
:1012680012F0090E07260750040D010EF324F66E3E
:101278007E0EF420F76E0900FFFFF5CF0FF009008E
:10128800FFFFF5CF10F00900FFFFF5CF11F00A00BE
:10129800FFFFF5CF12F0000E046E0A0E036E3050F9
:1012A800016E026A01BE02069BEC13F00150040DA8
:1012B800010EF324F66E7E0EF420F76E0900FFFF90
:1012C800F5CF13F00900FFFFF5CF14F00900FFFF79
:1012D800F5CF15F00A00FFFFF5CF16F09BEC09F0EB
:1012E800FFFF0FC028F010C029F011C02AF012C06B
:1012F8002BF01AD0FFFF3050040D010EF324F66EC8
:101308007E0EF420F76E0900FFFFF5CF28F00900E4
:10131800FFFFF5CF29F00900FFFFF5CF2AF00A00FB
:10132800FFFFFFFFF5CF2BF0FFFF1200FFFFFFFFCE
:101338001250800B1B6E12501224216E11BE218098
:101348002150D8B40ED02128D8A408D0000E0F6E92
:10135800000E106E000E116E000E126EFFFF118E41
:1013680009D0FFFF000E0F6E000E106E000E116EFA
:10137800000E126EFFFF1650800B1B1A1650162413
:10138800206E15BE20802050D8B40ED02028D8A4B6
:1013980008D0000E136E000E146E000E156E000EAF
:1013A800166EFFFF158E09D0FFFF000E136E000E9C
:1013B800146E000E156E000E166EFFFF2050D8B486
:1013C80003D02150D8A40AD0FFFF000E0F6E000EE4
:1013D800106E000E116E000E126E67D1FFFF1550D1
:1013E8000F02F3CF26F0F4CF27F026501C6E1D6AAB
:1013F8001E6A1F6A2750226E236A246A256A1450BF
:101408001002F3CF26F0F4CF27F026501C26000E4A
:101418001D221E221F2227502226000E23222422AC
:10142800252213501102F3CF26F0F4CF27F02650CF
:101438001C26000E1D221E221F2227502226000EC7
:101448002322242225221EC01FF01DC01EF01CC00E
:101458001DF01C6A13501002F3CF26F0F4CF27F0CA
:1014680026501C2627501D22000E1E22000E1F2269
:1014780014500F02F3CF26F0F4CF27F026501C2685
:1014880027501D22000E1E22000E1F221EC01FF014
:101498001DC01EF01CC01DF01C6A13500F02F3CFB4
:1014A80026F0F4CF27F026501C2627501D22000EC8
:1014B8001E22000E1F2215501002F3CF26F0F4CF83
:1014C80027F02650222627502322000E2422000E21
:1014D800252214501102F3CF26F0F4CF27F026501E
:1014E800222627502322000E2422000E25221550E2
:1014F8001102F3CF26F0F4CF27F02650176E2750AD
:10150800186E196A1A6A19C01AF018C019F017C0AB
:1015180018F0176A1750222618502322195024222F
:101528001A5025221CC017F01DC018F01EC019F053
:101538001FC01AF0190E06D0FFFFD8901A321932C0
:1015480018321732FFFFE82EF7D717502226185007
:101558002322195024221A5025221EC01FF01DC014
:101568001EF01CC01DF01C6A205021C017F0186A1C
:101578001726000E1822820E1724266EFF0E18203A
:10158800276E10D0FFFFD890223623362436253612
:101598001FBE2280D8901C361D361E361F362606E2
:1015A800D8A02706FFFF24AEEDD7000E206E1FAE91
:1015B80019D0FF0E1C14176EFF0E1D14186EFF0EA7
:1015C8001E14196E7F0E1F141A6E1750181019105A
:1015D8001A10D8B404D0FFFF010E206E03D0FFFF0D
:1015E80022B0F9D7FFFF2050D8B41FD0010E222611
:1015F800000E23222422252225A017D022C017F06E
:1016080023C018F024C019F025C01AF01A341A3271
:1016180019321832173217C022F018C023F019C037
:1016280024F01AC025F0264A272AFFFF27BE0DD02E
:10163800275003E12628D8A008D0000E226E000EFD
:10164800236E800E246E7F0E23D0FFFF27BE05D0A9
:1016580027500FE12604D8B00CD0FFFF000E226EF1
:10166800000E236E000E246E000E256E000E1B6EFB
:1016780011D0FFFF26C021F0FF0E2216FF0E231601
:101688007F0E2416000E251621B0248ED890213006
:10169800FFFF256EFFFF1B50251222C00FF023C04D
:1016A80010F024C011F025C012F0FFFF1200FFFF58
:1016B800FFFF3850800B416E38503824436E37BED8
:1016C80043804350D8B40ED04328D8A408D0000E85
:1016D800356E000E366E000E376E000E386EFFFF48
:1016E800378E07D0FFFF000E356E000E366E000EE7
:1016F800376EFFFF000E386E3C50800B426E415033
:101708004218D8A4418C3C503C24426E3BBE4280D7
:101718004250D8B40ED04228D8A408D0000E396E52
:10172800000E3A6E000E3B6E000E3C6EFFFF3B8EC5
:1017380007D0FFFF000E396E000E3A6E000E3B6EAA
:10174800FFFF000E3C6E4350425CD8B023D041AC42
:1017580002D0800E411AFFFF43C044F042C043F05C
:1017680044C042F035C044F039C035F044C039F0C7
:1017780036C044F03AC036F044C03AF037C044F0BE
:101788003BC037F044C03BF038C044F03CC038F0B0
:1017980044C03CF0FFFF000E446E435042C03DF091
:1017A8003E6A3D5E000E3E5A3EBE31D03E5004E1D8
:1017B8001A0E3D5CD8A02BD0355036103710381093
:1017C800D8B402D0010E02D0FFFF000EFFFF446E16
:1017D800000E356E000E366E000E376E000E386E37
:1017E80042C043F019D0FFFF44A005D0D890443040
:1017F8000109446E03D0FFFFD8904432FFFF35B093
:10180800448E38343832373236323532432AFFFF85
:101818004250435CD8A0E7D7FFFF41BC21D04350DA
:10182800D8B465D0395035263A5036223B50372245
:101838003C50382238A07BD044A005D0D890443002
:101848000109446E03D0FFFFD8904432FFFF35B042
:10185800448E38343832373236323532432A67D0FC
:10186800FFFF3950355C3A5036583B50375838509E
:10187800800A3D6E3C50800A3D58D8B025D035507E
:10188800395C3D6E36503A583E6E37503B583F6E85
:1018980038503C58406EFF0E3D24356EFF0E3E20FA
:1018A800366EFF0E3F20376EFF0E4020386E800EDA
:1018B800411A446C4450D8A410D0010E3526000EAD
:1018C80036223722382209D0FFFF3950355E3A5088
:1018D800365A3B50375A3C50385AFFFF355036106D
:1018E80037103810D8A420D04450D8A41DD0FFFFFA
:1018F800000E356E000E366E000E376E000E386E16
:1019080076D0FFFFD890353636363736383644BE6F
:10191800358044A002D0D88002D0FFFFD890FFFFC6
:1019280044364350D8A44306FFFF37AEEAD7FFFF3B
:10193800000E426E44AE0DD044C03DF07F0E3D1601
:10194800D8B404D0FFFF010E426E03D0FFFF35B0BC
:10195800F9D7FFFF4250D8B420D0010E3526000E2B
:1019680036223722382238A018D035C03DF036C08C
:101978003EF037C03FF038C040F0403440323F328C
:101988003E323D323DC035F03EC036F03FC037F004
:1019980040C038F04328D8A4432AFFFF4328D8B4CE
:1019A80003D04350D8A40ED0FFFF000E356E000EB2
:1019B800366E000E376E000E386E4350D8A402D033
:1019C800000E416EFFFF43A002D0378E02D0FFFF0A
:1019D800379EFFFFD8904330386E41BE388E35C0F1
:1019E80035F036C036F037C037F038C038F0FFFF72
:1019F8001200FFFFFFFF2B50800B386E2B502B245B
:101A08003F6E2ABE3F803F50D8B40ED03F28D8A49E
:101A180008D0000E286E000E296E000E2A6E000EE9
:101A28002B6EFFFF2A8E07D0FFFF000E286E000ED8
:101A3800296E000E2A6EFFFF000E2B6E2F50800BB2
:101A4800381A2F502F24406E2EBE40804050D8B4F4
:101A58000ED04028D8A408D0000E2C6E000E2D6E93
:101A6800000E2E6E000E2F6EFFFF2E8E07D0FFFF8A
:101A7800000E2C6E000E2D6E000E2E6EFFFF000E57
:101A88002F6E2C502D102E102F10D8A418D0000E09
:101A9800286E000E296E000E2A6E000E2B6E800E28
:101AA8002A127F0E2B12FFFF38502B1228C028F065
:101AB80029C029F02AC02AF02BC02BF0F8D0FFFF4C
:101AC8003F50D8A409D0000E286E000E296E000ED3
:101AD8002A6E000E2B6EEBD0FFFF40503FC030F057
:101AE800316A305E000E315A7F0E3024396E000E96
:101AF80031203A6E28C034F029C035F02AC036F0BB
:101B08002BC037F0000E286E000E296E000E2A6ECC
:101B1800000E2B6E000E3B6E000E3C6E000E3D6EEE
:101B2800000E3E6E000E406E2BD0FFFF4050D8B422
:101B380011D0D8903436353636363736D8902836E0
:101B480029362A362B363EBE2880D8903B363C367E
:101B58003D363E36FFFF2C50345C2D5035582E5004
:101B680036582F503758D8A009D03E8C2C50345EA8
:101B78002D50355A2E50365A2F50375AFFFF402ACB
:101B8800FFFF190E4064D1D7345035103610371086
:101B9800D8B412D03B8010D0FFFFD8902836293611
:101BA8002A362B363EBE2880D8903B363C363D360A
:101BB8003E363906D8A03A06FFFF2AAEEDD7000E0A
:101BC800406E3EAE19D0FF0E3B14306EFF0E3C1433
:101BD800316EFF0E3D14326E7F0E3E14336E305060
:101BE800311032103310D8B404D0FFFF010E406E0C
:101BF80003D0FFFF28B0F9D7FFFF4050D8B41FD05B
:101C0800010E2826000E29222A222B222BA017D0CB
:101C180028C030F029C031F02AC032F02BC033F090
:101C28003334333232323132303230C028F031C0BE
:101C380029F032C02AF033C02BF0394A3A2AFFFF84
:101C48003ABE10D03A5003E13928D8A00BD0000E84
:101C58003A6E3968000E286E000E296E000E2A6E44
:101C6800000E2B6EFFFF3ABE05D03A5012E1390440
:101C7800D8B00FD0FFFF000E3A6E000E396E000E7E
:101C8800286E000E296E000E2A6E000E2B6E000EB6
:101C9800386EFFFF39C03FF03FA002D02A8E02D035
:101CA800FFFF2A9EFFFFD8903F302B6EFCD6FFFF28
:101CB8001200FFFFFFFF346E6D0E3464B0D0000ECB
:101CC800136E000E146E000E156E3F0E166E000E8B
:101CD800096E640E086E34C006F0076ABBEC14F097
:101CE800D89006360736D89006360736480E0626A8
:101CF800000E0722350E0624F66E7E0E0720F76EBC
:101D08000900FFFFF5CF0FF00900FFFFF5CF10F036
:101D18000900FFFFF5CF11F00A00FFFFF5CF12F021
:101D28009BEC09F00FC030F010C031F011C032F058
:101D380012C033F0000E096E0A0E086E000E046E13
:101D4800640E036E34C001F0026A17EC15F001C08E
:101D580006F002C007F0BBEC14F0D8900636073640
:101D6800D89006360736240E0626000E0722350EB2
:101D78000624F66E7E0E0720F76E0900FFFFF5CFEA
:101D880013F00900FFFFF5CF14F00900FFFFF5CFAE
:101D980015F00A00FFFFF5CF16F030C00FF031C084
:101DA80010F032C011F033C012F09BEC09F00FC0F4
:101DB8002CF010C02DF011C02EF012C02FF02CC046
:101DC8000FF02DC010F02EC011F02FC012F0000E31
:101DD800046E0A0E036E34C001F0026A17EC15F0A7
:101DE800D89001360236D89001360236350E0124D5
:101DF800F66E7E0E0220F76E0900FFFFF5CF13F096
:101E08000900FFFFF5CF14F00900FFFFF5CF15F02B
:101E18000A00FFFFF5CF16F09BEC09F092D0FFFF08
:101E28000A0E34646BD0000E136E000E146E000E92
:101E3800156E3F0E166E000E096E0A0E086E34C03F
:101E480006F0076ABBEC14F0D89006360736D8902F
:101E580006360736240E0626000E0722350E0624FF
:101E6800F66E7E0E0720F76E0900FFFFF5CF0FF024
:101E78000900FFFFF5CF10F00900FFFFF5CF11F0C3
:101E88000A00FFFFF5CF12F09BEC09F00FC030F00D
:101E980010C031F011C032F012C033F030C00FF072
:101EA80031C010F032C011F033C012F0000E046ED1
:101EB8000A0E036E34C001F0026A17EC15F0D890D0
:101EC80001360236D89001360236350E0124F66EF8
:101ED8007E0E0220F76E0900FFFFF5CF13F0090010
:101EE800FFFFF5CF14F00900FFFFF5CF15F00A004A
:101EF800FFFFF5CF16F09BEC09F023D0FFFF34501D
:101F0800040D350EF324F66E7E0EF420F76E0900EC
:101F1800FFFFF5CF0FF00900FFFFF5CF10F0090024
:101F2800FFFFF5CF11F00A00FFFFF5CF12F0000E0A
:101F3800136E000E146E000E156E3F0E166E9BEC9F
:101F480009F0FFFF0FC028F010C029F011C02AF0D7
:101F580012C02BF01200FFFFFFFF096E0950D8A432
:101F680004AE1AD001C005F002C006F003C007F0A5
:101F780004C008F0051E061E071E081E052A000ECE
:101F880006220722082205C00BF006C00CF007C085
:101F98000DF008C00EF009D0FFFF01C00BF002C021
:101FA8000CF003C00DF004C00EF0FFFF015002104A
:101FB80003100410D8A409D0000E016E000E026EA2
:101FC800000E036E000E046E72D0FFFF960E0A6EAE
:101FD80007D0FFFF0A2AD8900E320D320C320B328E
:101FE800FFFF000E0B14056E000E0C14066E000E9B
:101FF8000D14076EFE0E0E14086E0550061007101D
:102008000810D8B40ED0E5D7FFFF0A2A010E0B2618
:10201800000E0C220D220E22D8900E320D320C32F8
:102028000B32FFFF000E0B14056E000E0C14066E2B
:10203800000E0D14076EFF0E0E14086E05500610E4
:1020480007100810D8B408D0DFD7FFFF0A06D890C9
:102058000B360C360D360E36FFFF0DBE03D0020EC2
:102068000A60F3D7FFFF0AA00D9ED8900A320AC073
:1020780005F0066A076A086A05C008F0076A066A72
:10208800056A05500B1206500C1207500D12085025
:102098000E120950D8A404AE01D00E8EFFFF0BC05B
:1020A80001F00CC002F00DC003F00EC004F0FFFFF9
:1020B8001200FFFFFFFF03C009F00A6A0B6A02342F
:1020C800093601E30A800950116E1150D8A40AD0CC
:1020D800FFFF000E016E000E026E000E036E000E72
:1020E800046E70D0FFFF07C009F00A6A0B6A063455
:1020F800093601E30A800950106E1050D8B4E8D7A9
:10210800028EFF0E0116FF0E0216000E0316068E33
:10211800FF0E0516FF0E0616000E0716000E0C6EB3
:10212800000E0D6E000E0E6E000E0F6E7F0E115E0D
:102138001050980F115E180E106EFFFFD8900C36D5
:102148000D360E360F360550015C06500258075002
:102158000358D8A007D00550015E0650025A075010
:10216800035A0C80FFFFD890013602360336102E32
:10217800E4D711AE0ED01150800A970FD8A0A8D777
:10218800FFFFD8900F320E320D320C32113EF8D7C5
:1021980010D0FFFF170E116408D09AD7FFFFD89010
:1021A8000C360D360E360F361106FFFF1150D8A427
:1021B800F5D7FFFF0CC001F00DC002F00EC003F010
:1021C8000FC004F0FFFF1200FFFFFFFF03340434C9
:1021D8000E6E0E50D8A40AD0FFFF000E016E000E3E
:1021E800026E000E036E000E046E72D0FFFF0734FD
:1021F80008340D6E0D50D8B4EFD7038EFF0E0116BC
:10220800FF0E0216FF0E0316000E0416078EFF0EB1
:102218000516FF0E0616FF0E0716000E0816000E0E
:10222800096E000E0A6E000E0B6E000E0C6E7F0E0D
:102238000E5E0D50A00F0E5E200E0D6EFFFFD890A3
:1022480009360A360B360C360550015C0650025822
:102258000750035808500458D8A009D00550015E0B
:102268000650025A0750035A0850045A0980FFFFC3
:10227800D89001360236033604360D2EDFD70EAE5F
:102288000ED00E50800A9F0FD8A0A6D7FFFFD89077
:102298000C320B320A3209320E3EF8D710D0FFFF4B
:1022A8001F0E0E6408D098D7FFFFD89009360A365B
:1022B8000B360C360E06FFFF0E50D8A4F5D7FFFFDD
:1022C80009C001F00AC002F00BC003F00CC004F012
:1022D800FFFF1200FFFFFFFF000E136E000E146ECB
:1022E800FA0E156E430E166E45C001F046C002F098
:1022F800036A046A000EB0EC0FF001C00FF002C0D0
:1023080010F003C011F004C012F09BEC09F00FC0EC
:1023180028F010C029F011C02AF012C02BF0000ECE
:102328002C6EC00E2D6E7F0E2E6E440E2F6EFEECA0
:102338000CF028C049F029C04AF02AC04BF02BC045
:102348004CF046501EE10B0E455CD8B01AD049C07F
:1023580035F04AC036F04BC037F04CC038F09A0E12
:10236800396E990E3A6E990E3B6E3E0E3C6E5CECE1
:102378000BF035C049F036C04AF037C04BF038C0D2
:102388004CF0FFFF49C035F04AC036F04BC037F07B
:102398004CC038F09F0E396ED60E3A6E230E3B6E47
:1023A800BC0E3C6E5CEC0BF035C045F036C046F018
:1023B80037C047F038C048F01200FFFFFFFF000E9B
:1023C8000114096E000E02140A6E800E03140B6EBF
:1023D8007F0E04140C6E09500A100B100C10D8A4B0
:1023E80008D0000E016E000E026E000E036E000E85
:1023F800046EFFFF000E0514096E000E06140A6E27
:10240800800E07140B6E7F0E08140C6E09500A100C
:102418000B100C10D8A408D0000E056E000E066E26
:10242800000E076E000E086EFFFF04AE09D0016CA7
:10243800021ED8B0022A031ED8B0032A800E045602
:10244800FFFF08AE09D0056C061ED8B0062A071E85
:10245800D8B0072A800E0856FFFF000E011A000E9A
:10246800021A000E031A800E041A000E051A000E36
:10247800061A000E071A800E081A0550015C06504D
:1024880002580750035808500458D8B002D0D890C2
:1024980002D0FFFFD880FFFF1200FFFFFFFF333499
:1024A80034343A6E3A50D8A40AD0FFFF000E316E89
:1024B800000E326E000E336E000E346E56D0FFFFE3
:1024C80031C035F032C036F033C037F034C038F0A0
:1024D800200E06D0FFFFD8903832373236323532E8
:1024E800FFFFE82EF7D73550396E338EFF0E3116C1
:1024F800FF0E3216FF0E3316000E3416960E3A5E95
:102508003AAE0ED03A50800A970FD8A0CED7FFFF28
:10251800D89034323332323231323A3EF8D710D092
:10252800FFFF1F0E3A6408D0C0D7FFFFD89031369E
:102538003236333634363A06FFFF3A50D8A4F5D748
:10254800FFFF3950D8B408D0341E331E321E316C08
:10255800000E322233223422FFFF31C031F032C064
:1025680032F033C033F034C034F0FFFF1200FFFF05
:10257800FFFF000E0C6E0AAE06D0096C0A1ED8B01A
:102588000A2A010E0C6EFFFF08AE06D0076C081E63
:10259800D8B0082A010E0C1AFFFF000E0E6E000EAE
:1025A8000D6E09500A10D8B420D0010E0B6E05D05C
:1025B800FFFFD89009360A360B2AFFFF0AAEF8D774
:1025C800FFFFD8900D360E360950075C0A500858A0
:1025D800D8A005D00950075E0A50085A0D80FFFFA1
:1025E800D8900A3209320B2EEBD7FFFF0C50D8B423
:1025F80004D00D6C0E1ED8B00E2AFFFF0DC007F0D8
:102608000EC008F01200FFFFFFFF000E0114096E54
:10261800000E02140A6E800E03140B6E7F0E041453
:102628000C6E09500A100B100C10D8A408D0000E1C
:10263800016E000E026E000E036E000E046EFFFFA8
:10264800000E0514096E000E06140A6E800E07149B
:102658000B6E7F0E08140C6E09500A100B100C102C
:10266800D8A408D0000E056E000E066E000E076E88
:10267800000E086EFFFF055001180AE10650021807
:1026880007E10750031804E108500418D8B402D031
:10269800D89002D0FFFFD880FFFF1200FFFFFFFF96
:1026A800000E096E000E0A6E000E0B6E000E0C6E08
:1026B8000550061007100810D8B42ED0010E0D6E64
:1026C80007D0FFFFD89005360636073608360D2A9C
:1026D800FFFF08AEF6D7FFFFD89009360A360B364B
:1026E8000C360550015C0650025807500358085034
:1026F8000458D8A009D00550015E0650025A075068
:10270800035A0850045A0980FFFFD890083207324C
:10271800063205320D2EDFD7FFFF09C001F00AC0CF
:1027280002F00BC003F00CC004F01200FFFFFFFF23
:10273800000E066E02AE06D0016C021ED8B0022A48
:10274800010E066EFFFF04AE04D0036C041ED8B061
:10275800042AFFFF03500410D8B41CD0010E056EE4
:1027680005D0FFFFD89003360436052AFFFF04AED4
:10277800F8D7FFFF0350015C04500258D8A004D0DA
:102788000350015E0450025AFFFFD890043203320E
:10279800052EEFD7FFFF0650D8B404D0016C021EF7
:1027A800D8B0022AFFFF01C001F002C002F01200F7
:1027B800FFFFFFFF0550061007100810D8B428D0F7
:1027C800010E096E07D0FFFFD8900536063607368A
:1027D8000836092AFFFF08AEF6D7FFFF0550015C4F
:1027E800065002580750035808500458D8A008D07B
:1027F8000550015E0650025A0750035A0850045A01
:10280800FFFFD8900832073206320532092EE5D785
:10281800FFFF01C001F002C002F003C003F004C0D2
:1028280004F01200FFFFFFFF0750D8B403D0075091
:1028380026EC16F0FFFF000E0A6E1BD0FFFF0A50B1
:102848000524086E000E0620096E08C0F6FF09C0B0
:10285800F7FFF86A050EF76404D00800FFFFF5508B
:1028680005D0F6CFE9FFF7CFEAFFEF5018EC16F0E6
:102878000A2AFFFF05C001F006C002F03FEC15F080
:102888000A50086E096A0150085C02500958D8B00D
:102898001200FFFFD3D7FFFFFFFF000E136E000EDD
:1028A800146EA00E156E400E166E41C001F042C0A7
:1028B80002F0036A046A000EB0EC0FF001C00FF0DA
:1028C80002C010F003C011F004C012F09BEC09F034
:1028D8000FC028F010C029F011C02AF012C02BF048
:1028E800000E2C6EC00E2D6E7F0E2E6E440E2F6EB7
:1028F800FEEC0CF028C041F029C042F02AC043F099
:102908002BC044F01200FFFFFFFF000E096E1CD021
:10291800FFFFACA2FDD709500524076E000E062064
:10292800086E07C0F6FF08C0F7FFF86A050EF764DF
:1029380004D00800FFFFF55005D0F6CFE9FFF7CF28
:10294800EAFFEF50AD6E092AFFFF05C001F006C08F
:1029580002F03FEC15F00950076E086A0150075C59
:1029680002500858D8B01200FFFFD2D7FFFFFFFF70
:10297800000E0B6E000E0A6E08500910D8B420D055
:10298800010E0C6E05D0FFFFD890083609360C2AC8
:10299800FFFF09AEF8D7FFFFD8900A360B3608506C
:1029A800065C09500758D8A005D00850065E0950A3
:1029B800075A0A80FFFFD890093208320C2EEBD74D
:1029C800FFFF0AC006F00BC007F01200FFFFFFFF71
:1029D800140E026E7D0EFFFFE82EFDD7022EFBD7E8
:1029E80000D0300E26EC16F0050E026EDF0EFFFF4B
:1029F800E82EFDD7022EFBD7300E26EC16F03C0E43
:102A080026EC16F00C0E26EC16F0010E26EC16F04D
:102A1800140E026E7D0EFFFFE82EFDD7022EFBD7A7
:102A280000D01200FFFFFFFF03500410D8B41CD0E1
:102A3800010E056E05D0FFFFD89003360436052A2F
:102A4800FFFF04AEF8D7FFFF0350015C04500258A3
:102A5800D8A004D00350015E0450025AFFFFD8905A
:102A680004320332052EEFD7FFFF01C001F002C088
:102A780002F01200FFFFFFFF01C003F002C004F0E4
:102A880003D0FFFF034A042AFFFF03C0F6FF04C078
:102A9800F7FFF86A050EF76404D00800FFFFF55049
:102AA80005D0F6CFE9FFF7CFEAFFEF500009D8A429
:102AB800E8D70150035C016E02500458026E120000
:102AC800FFFFFFFF000E491A000E4A1A000E4B1AAC
:102AD800800E4C1A45C035F046C036F047C037F076
:102AE80048C038F049C039F04AC03AF04BC03BF012
:102AF8004CC03CF05CEC0BF035C045F036C046F0FD
:102B080037C047F038C048F01200FFFFFFFF030E40
:102B1800926E000E936E800E946E000E956E410EAE
:102B2800C26E840EC16E000E896E000E8A6E000E93
:102B38008B6E000E8C6E000E806E000E816E000E85
:102B4800826E000E836E1200FFFF920EF66E2C0E40
:102B5800F76E000EF86E0900F5CFF1F001EE00F007
:102B6800320EEE6AE806FDE100EED1F0200EEE6AC4
:102B7800E806FDE176907692000EF86E000143EFCC
:102B880005F0FFFF0150021003100410D8B408D05C
:102B9800000E011A000E021A000E031A800E041A03
:102BA800FFFF01C001F002C002F003C003F004C03F
:102BB80004F01200FFFFFFFF01500302F3CF05F0FE
:102BC800F4CF06F001500402F35006260250030227
:102BD800F350062605C001F006C002F01200FFFF00
:102BE800FFFF036E000E026E3A0E036005D02F0E33
:102BF800036402D0010E026EFFFF02C001F0013033
:102C08001200FFFFFFFFC00EF26ED09E190EAF6ECE
:102C1800200E9D6E100E9E6E200E9F6E260EAC6EC0
:102C2800900EAB6E1200FFFFFFFF016E8B968B8834
:102C380001C08CFF8B86190EFFFFE82EFDD78B96FF
:102C48001200FFFFFFFF016E8B968B9801C08CFF6F
:102C58008B86190EFFFFE82EFDD78B961200FFFF1B
:102C6800FFFF000E8A6E1200FFFFFFFF020E8A6E42
:102C78001200FFFFFFFF030E8A6E1200FFFFFFFF27
:0B2C8800010E8A6E1200FFFFFFFF012B
:107E0000000000803F000020410000C84200007ACE
:107E10004400401C460050C3470024744980961813
:107E20004B20BCBE4C286B6E4EF9021550EC78AD61
:107E300060CAF249710000803FCDCCCC3D0AD72307
:107E40003C6F12833A17B7D138ACC52737BD378698
:107E50003595BFD63377CC2B325F708930FFE6DBA8
:107E60002E08E53C1E6042A20D010000000A000041
:107E70000064000000E803000010270000A0860155
:107E80000040420F008096980000E1F50500CA9A74
:107E90003B50454C4947524F3A2052494553474F72
:107EA000204445204445535452554343494F4E0DB9
:107EB0000A0074202D20436F6E6F63657220746515
:107EC0006D70657261747572610D0A0050454C49A0
:107ED00047524F3A20414C544F20564F4C54414A40
:107EE000450D0A0050454C4947524F3A204C4C45ED
:107EF000474F20454C2046494E0D0A0076202D2044
:107F0000436F6E6F63657220766F6C74616A650D86
:107F10000A0054656D70657261747572613A20254E
:107F20002E3066430D0A0054656D703A20252E30C0
:107F300066432020202020202000566F6C74616A48
:107F4000653A2025302E326656202020004F70637F
:107F5000696F6E20696E76616C6964610D0A005606
:107F60006F6C74616A653A20252E3266560D0A00E0
:107F70002020202020454C2046494E202020202033
:107F800000202020202052494553474F2020202008
:107F900020002020414C544F20564F4C54414A451C
:107FA0002020002044452044455354525543434922
:107FB0004F4E200020202020204C4C45474F2020B1
:107FC000202020002020202050454C4947524F209F
:107FD000202000446965676F202D2038343031300F
:107FE00000434F4E564552534F5220414443005098
:0F7FF000726573696F6E613A0D0A000A0A00002C
:020000040020DA
:08000000FFFFFFFFFFFFFFFF00
:020000040030CA
:0E000000FF210C0EFF0181FF0FC00FE00F402B
:00000001FF
