:020000040000FA
:0600000000F088EF1FF084
:103F0E00FFFF00018BEF1FF0FFFFB7EC1FF0D4ECAB
:103F1E001FF0A3EC1FF0FFFFFED7FFFF016E8B9685
:103F2E008B9801C08CFF8B86190EFFFFE82EFDD7F4
:103F3E008B961200FFFFFFFFFFFFC80EF26E010E01
:103F4E00F16ED09E190EAF6E200E9D6E100E9E6EEF
:103F5E00200E9F6E260EAC6E900EAB6E1200FFFF03
:103F6E00FFFF030E926EF00E936E800E946E000E97
:103F7E00956E410EC26E840EC16E000E896E8A68F9
:103F8E00000E8B6E000E8C6E000E806E8168000E21
:103F9E00826E000E836E1200FFFFFFFF140E026E84
:103FAE007D0EFFFFE82EFDD7022EFBD700D0300E80
:103FBE0094EC1FF0050E026EDF0EFFFFE82EFDD70C
:103FCE00022EFBD7300E94EC1FF03C0E94EC1FF03B
:103FDE000C0E94EC1FF0010E94EC1FF0140E026EFA
:103FEE007D0EFFFFE82EFDD7022EFBD700D012006C
:023FFE00FFFFC3
:020000040020DA
:08000000FFFFFFFFFFFFFFFF00
:020000040030CA
:0E000000FF210C0EFF0181FF0FC00FE00F402B
:00000001FF
