:020000040000FA
:0600000000F08AEF00F0A1
:10000800FFFF4982E9CF1CF0EACF1DF0D9CF1EF0DF
:10001800DACF1FF0F3CF20F0F4CF21F0F6CF22F0A3
:10002800F7CF23F0F8CF24F0F5CF25F0F2A056D083
:1000380081CF36F0FFFF8150F00BF00AD8A4FAD731
:100048000C0EFFFFE82EFDD700D04850D8A444D0AE
:100058004650D8A441D0260E0D6E000E0E6E8B0EA3
:100068000F6E060E106E36509EEC06F01B6E1B507F
:10007800116E126A11EC05F0620E2618D8B41DD064
:10008800650E2618D8B419D0A20E016E000E026EA5
:10009800FEEC09F0A20E0124D96E000E0220DA6EE1
:1000A80026C0DFFF260E056E000E066E000E076ED8
:1000B800000E086E74EC07F00FD0FFFF650E2618CF
:1000C800D8A404D0010E00019F6F06D0FFFF620E76
:1000D8002618D8B4B5EC0AF0FFFFF290FFFF25C050
:1000E800F5FF24C0F8FF23C0F7FF22C0F6FF21C0A8
:1000F800F4FF20C0F3FF1FC0DAFF1EC0D9FF1DC0E8
:10010800EAFF1CC0E9FF49921100FFFFACEF08F0BD
:100600000001000A006400E8031027444945474FF1
:10061000205341524156494100496E696369616EF8
:10062000646F2E2E2E004F7472612076657A2E2E06
:100630002E00434F4E43454E54524553450052659C
:10064000696E696369616E646F005369672E206E1D
:100650006976656C00457363726962653A2000478C
:10066000616E61646F212100506572646973746505
:100670000047616E61737465003834303130004A70
:100680007565676F00A1A148617300256300256946
:100690000000FFFF4CEC0AF00AEC09F038EC0AF01D
:1006A0000B0E3B6E060E3C6E800E3D6E000E3E6ED7
:1006B000EEEC06F0790E3B6E060E3C6EC00E3D6E03
:1006C000000E3E6EEEEC06F0080E0001996F9E0ED5
:1006D000986F4B0EFFFFE82EFDD7982FFBD7992F71
:1006E000F9D700D000F05FEC0AF0320E3B6E060E38
:1006F0003C6E800E3D6E000E3E6EEEEC06F0190E66
:100700003B6E060E3C6EC00E3D6E000E3E6EEEEC75
:1007100006F0080E0001996F9E0E986F4B0EFFFFBA
:10072000E82EFDD7982FFBD7992FF9D700D000F0EE
:100730005FEC0AF0000E386E0D0E376EA6EC0AF074
:10074000800E7CEC0AF0FFFF000E00019E6FFFFFA1
:10075000030E9E6501D019D0FFFF9EC098F0010ED8
:10076000996F982B03D0FFFFD8909937FFFF982FF0
:10077000FAD700019951FF0A8A6E020EFFFFE82E98
:10078000FDD700D000019E2BE2D7FFFFA051D8A4D7
:1007900052D0000E9D6F11D0FFFF0A0E916F000E18
:1007A000E9EC07F00001986FAC0E9D25D96EDA6A6E
:1007B000000EDA2298C0DFFF9D2BFFFFA151020D32
:1007C000B60EF324D96E000EF420DA6E9D519A6FA6
:1007D0009B6BDE509A5D9B51800A9C6FDE50800AB5
:1007E0009C59D8A0D9D7AC0E3B6E000E3C6E800E43
:1007F0003D6E010E3E6EEEEC06F0080E0001996FA4
:100800009E0E986F4B0EFFFFE82EFDD7982FFBD75B
:10081000992FF9D700D000F05FEC0AF0550E3B6E2F
:10082000060E3C6E800E3D6E000E3E6EEEEC06F047
:10083000C00E7CEC0AF0FFFF000E486E010E0001B6
:10084000A06F9F51D8B41ED05FEC0AF0000E0001DB
:10085000A06F010E486EAC0E3B6E000E3C6EA20EF9
:100860003D6E000E3E6EDBEC08F00009D8B403D0FC
:1008700043EC06F003D0FFFFDAEC05F0FFFF000EBB
:1008800000019F6FFFFF000E466E5DD7FFFF880ED1
:1008900000018C6F000E8D6FADD0FFFF250E9019FB
:1008A000D8B40AD0FFFF84C0D9FF85C0DAFF90C05A
:1008B000DFFF844B852B9ED0FFFF000E8A6F0CD08C
:1008C000FFFF8CC0D9FF8DC0DAFFDF50906F020EA2
:1008D0008C27000E8D23E6D7FFFF86C0F6FF87C06A
:1008E000F7FF864B872B0800FFFFF5CF90F0905164
:1008F000000AD8B48DD0630AD8B4E2D7070AD8B4B6
:1009000003D00D0AD8A4CED7FFFF8CC0D9FF8DC06D
:10091000DAFFDECF8EF0DDCF8FF0020E8C27000ED7
:100920008D238FAF06D0030E8A138E6D8F1FD8B024
:100930008F2BFFFF010E906FFFFF9051020D010EF4
:10094000F324F66E060EF420F76E0900FFFFF55053
:100950008E5D0900FFFFF5508F59D8A005D0902B70
:10096000050E9019D8A4E8D7FFFF8AC03FF0030E08
:100970003F16D8B408D084C0D9FF85C0DAFF2D0E49
:10098000DF6E844B852BFFFF90C08BF02ED0FFFFD6
:100990008B51020D010EF324F66E060EF420F76E55
:1009A0000900FFFFF5CF39F00A00FFFFF5CF3AF05D
:1009B0008EC037F08FC038F04CEC08F037C080F0B4
:1009C00038C081F0000E0001836F0A0E826F61EC67
:1009D00009F000018051300F906F84C0D9FF85C0AD
:1009E000DAFF90C0DFFF844B852BFFFF8B078B293D
:1009F000D8A4CDD7FFFF86C0F6FF87C0F7FF864B90
:100A0000872B0800FFFFF5CF90F09051D8A445D771
:100A1000FFFF84C0D9FF85C0DAFF000EDF6E120031
:100A2000FFFFFFFF110E166E000E176EACD0FFFF1A
:100A3000250E1A18D8B40AD0FFFF0DC0D9FF0EC07A
:100A4000DAFF1AC0DFFF0D4A0E2A9DD0FFFF000E0D
:100A5000146E0CD0FFFF16C0D9FF17C0DAFFDF50AD
:100A60001A6E020E1626000E1722E6D7FFFF0FC0E1
:100A7000F6FF10C0F7FF0F4A102A0800FFFFF5CF5E
:100A80001AF01A50000AD8B48CD0630AD8B4E2D74E
:100A9000070AD8B403D00D0AD8A4CED7FFFF16C0DA
:100AA000D9FF17C0DAFFDECF18F0DDCF19F0020E44
:100AB0001626000E172219AE06D0030E1412186C5B
:100AC000191ED8B0192AFFFF010E1A6EFFFF050E7E
:100AD0001A18D8B414D01A50020D010EF324F66E71
:100AE000060EF420F76E0900FFFFF550185C0900B0
:100AF000FFFFF5501958D8A002D01A2AE7D7FFFFF8
:100B000014C013F0030E1316D8B408D00DC0D9FFCB
:100B10000EC0DAFF2D0EDF6E0D4A0E2AFFFF1AC03F
:100B200015F02CD0FFFF1550020D010EF324F66EC8
:100B3000060EF420F76E0900FFFFF5CF03F00A0060
:100B4000FFFFF5CF04F018C001F019C002F07CECF3
:100B500008F001C008F002C009F0000E0B6E0A0E8A
:100B60000A6E8AEC09F00850300F1A6E0DC0D9FFDA
:100B70000EC0DAFF1AC0DFFF0D4A0E2AFFFF15066E
:100B80001528D8A4CFD7FFFF0FC0F6FF10C0F7FF7E
:100B90000F4A102A0800FFFFF5CF1AF01A50D8A408
:100BA00046D7FFFF0DC0D9FF0EC0DAFF000EDF6E83
:100BB0001200FFFFFFFF680E3B6E060E3C6E800EBC
:100BC0003D6E000E3E6EEEEC06F0040E0001826FEC
:100BD000CF0E816FA50EFFFFE82EFDD7812FFBD72B
:100BE000822FF9D700F05FEC0AF0AC0E3B6E000EDE
:100BF0003C6E800E3D6E000E3E6EEEEC06F0A20ED8
:100C00003B6E000E3C6EC00E3D6E000E3E6EEEEC76
:100C100006F00C0E0001826F6C0E816FF20EFFFF6A
:100C2000E82EFDD7812FFBD7822FF9D700D000F017
:100C30005FEC0AF03E0E3B6E060E3C6E800E3D6E83
:100C4000000E3E6EEEEC06F07F0E3B6E060E3C6E26
:100C5000C00E3D6E000E3E6EEEEC06F00C0E000176
:100C6000826F6C0E816FF20EFFFFE82EFDD7812F91
:100C7000FBD7822FF9D700D000F024EC0AF05FEC0C
:100C80000AF01200FFFFFFFF710E3B6E060E3C6E76
:100C9000800E3D6E000E3E6EEEEC06F0080E00017A
:100CA000846F9E0E836F4B0EFFFFE82EFDD7832FC0
:100CB000FBD7842FF9D700D000F0030E45600CD08D
:100CC000260E3B6E060E3C6E800E3D6E000E3E6E96
:100CD000EEEC06F0452A17D0FFFF010E456E00012D
:100CE000A12B030EA119D8A403D0B4EC07F023D094
:100CF000FFFF4A0E3B6E060E3C6E800E3D6E000EF0
:100D00003E6EEEEC06F0FFFFA20E3B6E000E3C6E58
:100D1000B2EC09F0080E0001846F9E0E836F4B0E3B
:100D2000FFFFE82EFDD7832FFBD7842FF9D700D004
:100D300000F05FEC0AF0FFFF1200FFFFFFFF016E03
:100D400024D0FFFF310E47D0FFFF320E44D0FFFF0B
:100D5000330E41D0FFFF340E3ED0FFFF350E3BD0A7
:100D6000FFFF360E38D0FFFF370E35D0FFFF380EAD
:100D700032D0FFFF390E2FD0FFFF300E2CD0FFFFF7
:100D8000650E29D0FFFF620E26D0FFFF0150770AC3
:100D9000D8B4F5D7090AD8B4F5D7C50AD8B4E9D775
:100DA000060AD8B4DDD7030AD8B4D1D7690AD8B4B3
:100DB000E3D70C0AD8B4DAD7060AD8B4CED7030AD8
:100DC000D8B4C2D7350AD8B4CED7060AD8B4C2D759
:100DD000030AD8B4B6D7FFFF1200FFFFFFFF3D5054
:100DE000D8B403D03D507CEC0AF0FFFF000E0001A8
:100DF000806F23D0FFFF80513B243F6E000E3C20CC
:100E0000406E3FC0F6FF40C0F7FFF86A050EF7647A
:100E100004D00800FFFFF55005D0F6CFE9FFF7CF6B
:100E2000EAFFEF506EEC0AF03E50D8B403D0200E2B
:100E30006EEC0AF0FFFF0001802BFFFF3BC037F094
:100E40003CC038F0D8EC09F0000180513F6E406A98
:100E500037503F5C38504058D8B01200FFFFCAD717
:100E6000FFFFFFFF000E0001896F85AF06D0846D84
:100E7000851FD8B0852B010E896FFFFF87AF04D087
:100E8000866D871FD8B0872BFFFF86518711D8B496
:100E90001CD0010E886F05D0FFFFD89086378737AA
:100EA000882BFFFF87AFF8D7FFFF8651845D8751FE
:100EB0008559D8A004D08651845F8751855BFFFF98
:100EC000D89087338633882FEFD7FFFF8951D8B466
:100ED00004D0846D851FD8B0852BFFFF84C084F0BB
:100EE00085C085F01200FFFFFFFF0750D8B403D084
:100EF00007508AEC0AF0FFFF000E0B6E22D0FFFFB6
:100F00000B500524096E000E06200A6E09C0F6FF7C
:100F10000AC0F7FFF86A050EF76404D00800FFFF67
:100F2000F55005D0F6CFE9FFF7CFEAFFEF5098EC88
:100F30000AF00850D8B403D0200E98EC0AF0FFFF56
:100F40000B2AFFFF05C001F006C002F0FEEC09F01D
:100F50000B50096E0A6A0150095C02500A58D8B059
:100F60001200FFFFCCD7FFFFFFFF850E3B6E060E82
:100F70003C6E800E3D6E000E3E6EEEEC06F05F0E97
:100F80003B6E060E3C6EC00E3D6E000E3E6EEEECED
:100F900006F024EC0AF0080E0001826F9E0E816FAD
:100FA0004B0EFFFFE82EFDD7812FFBD7822FF9D7FD
:100FB00000D000F0010E7CEC0AF0620E0001816F9F
:100FC000760EFFFFE82EFDD7812FFBD700F0120031
:100FD000FFFFFFFF0001966F36EC09F03FC084F081
:100FE00040C085F00001965191C092F0936B925FE2
:100FF000000E935B010E9225866F000E9321876F82
:1010000031EC07F0000196518425946F000E852184
:10101000956F970E846F000E856F8E0E866F060E8D
:10102000876F94C088F095C089F046EC04F0000109
:1010300097511200FFFFFFFF000E0001806F000EAE
:10104000816F000E826F000E836FFFFF37A009D003
:101050003B50000180273C5081233D5082233E506D
:101060008323FFFFD8903B363C363D363E36D89042
:101070003A323932383237323750381039103A1064
:10108000D8A4E3D780C037F081C038F082C039F0EF
:1010900083C03AF01200FFFFFFFF000E3C6E000E0F
:1010A0003B6E39503A10D8B420D0010E3D6E05D0B9
:1010B000FFFFD89039363A363D2AFFFF3AAEF8D7CF
:1010C000FFFFD8903B363C363950375C3A503858A1
:1010D000D8A005D03950375E3A50385A3B80FFFFD0
:1010E000D8903A3239323D2EEBD7FFFF3BC037F074
:1010F0003CC038F01200FFFFFFFF000E066E000E2E
:10110000056E03500410D8B420D0010E076E05D030
:10111000FFFFD89003360436072AFFFF04AEF8D746
:10112000FFFFD890053606360350015C0450025884
:10113000D8A005D00350015E0450025A0580FFFF7D
:10114000D89004320332072EEBD7FFFF05C001F021
:1011500006C002F01200FFFF640EF66E150EF76E69
:10116000000EF86E00EEB6F010EE06F00900F5CFB6
:10117000EEFFE550E150FAE15E0EF66E150EF76EE9
:10118000000EF86E00EE41F010EE06F00900F5CF0B
:10119000EEFFE550E150FAE100EE9FF0170EEE6A27
:1011A000E806FDE1486A476A49904992000EF86EE8
:1011B000000149EF03F0FFFF000E0001806F15D022
:1011C000FFFF80513B24D96E000E3C20DA6E805127
:1011D0003D24E16E000E3E20E26EDE50E618D8B4EB
:1011E00002D0000E14D0FFFF802BFFFF3DC037F070
:1011F0003EC038F0D8EC09F0000180513F6E406AE3
:1012000037503F5C38504058D8A0DAD7010EFFFF66
:101210001200FFFFFFFF140E386E7D0EFFFFE82E59
:10122000FDD7382EFBD700D0300E7CEC0AF0050E2F
:10123000386EDF0EFFFFE82EFDD7382EFBD7300EBD
:101240007CEC0AF03C0E7CEC0AF00C0E7CEC0AF014
:10125000010E7CEC0AF0140E386E7D0EFFFFE82EB6
:10126000FDD7382EFBD700D01200FFFFFFFF41C093
:1012700037F042C038F043C039F044C03AF06D0E48
:101280003B6E4E0E3C6EC60E3D6E410E3E6E1BEC2E
:1012900008F037C041F038C042F039C043F03AC0DE
:1012A00044F0390E4126300E4222000E4322000E39
:1012B0004422FF0E43143F6E7F0E4414406E120012
:1012C000FFFFFFFF000182518311D8B41CD0010E33
:1012D0003E6E05D0FFFFD890823783373E2AFFFF4E
:1012E00083AFF8D7FFFF8251805D83518159D8A029
:1012F00004D08251805F8351815BFFFFD89083339C
:1013000082333E2EEFD7FFFF80C080F081C081F096
:101310001200FFFFFFFF0A500B10D8B41CD0010EC3
:101320000C6E05D0FFFFD8900A360B360C2AFFFF53
:101330000BAEF8D7FFFF0A50085C0B500958D8A035
:1013400004D00A50085E0B50095AFFFFD8900B32A8
:101350000A320C2EEFD7FFFF08C008F009C009F0D1
:101360001200FFFFFFFF3BC037F03CC038F0D8EC65
:1013700009F037503F6E000E406E12D0FFFF405014
:10138000020DF3CF3DF0F4CF3EF03D503B24D96E3B
:101390003E503C20DA6E000EDE6E000EDD6E402AFE
:1013A000FFFF3F50405CD8B01200FFFFE7D7FFFFC0
:1013B000FFFF37C039F038C03AF003D0FFFF394A99
:1013C0003A2AFFFF39C0F6FF3AC0F7FFF86A050E68
:1013D000F76404D00800FFFFF55005D0F6CFE9FF11
:1013E000F7CFEAFFEF500009D8A4E8D73750395CAF
:1013F000376E38503A58386E1200FFFFFFFF01C0B9
:1014000003F002C004F003D0FFFF034A042AFFFFE9
:1014100003C0F6FF04C0F7FFF86A050EF76404D0B6
:101420000800FFFFF55005D0F6CFE9FFF7CFEAFF40
:10143000EF500009D8A4E8D70150035C016E0250B8
:101440000458026E1200FFFFFFFF010E456E000EF2
:101450000001A16FA20E3B6E000E3C6EB2EC09F0D3
:10146000AC0E3B6E000E3C6EB2EC09F01200FFFFBA
:10147000FFFFC80EF26E010EF16ED09E190EAF6E18
:10148000200E9D6E100E9E6E200E9F6E260EAC6E70
:10149000900EAB6E1200FFFFFFFFF00E936E800EFA
:1014A000946E000E956E8A68000E8B6E000E8C6E28
:1014B0008168000E826E000E836E1200FFFFFFFF38
:1014C000010E7CEC0AF0620E386E760EFFFFE82EFD
:1014D000FDD7382EFBD700D01200FFFFFFFF376E7D
:1014E0008B968B8837C08CFF8B86190EFFFFE82EFA
:1014F000FDD78B961200FFFFFFFF376E8B968B9800
:1015000037C08CFF8B86190EFFFFE82EFDD78B9618
:101510001200FFFFFFFF016E8B968B9801C08CFFBE
:101520008B86190EFFFFE82EFDD78B961200FFFF6A
:10153000FFFF016E8B968B8801C08CFF8B86190E86
:10154000FFFFE82EFDD78B961200FFFFFFFF37C08D
:1015500041F038C042F0436A446A1200FFFF0100C4
:1015600000000101040006000A00FFFF1200FFFF57
:02157000FFFF7B
:020000040020DA
:08000000FFFFFFFFFFFFFFFF00
:020000040030CA
:0E000000FF210C0EFF0181FF0FC00FE00F402B
:00000001FF
