:020000040000FA
:0600000000F093EF00F098
:10000800FFFF4782E9CF1CF0EACF1DF0D9CF1EF0E1
:10001800DACF1FF0F3CF20F0F4CF21F0F6CF22F0A3
:10002800F7CF23F0F8CF24F0F5CF25F0F2A05FD07A
:1000380081CF36F0FFFF8150F00BF00AD8A4FAD731
:100048000C0EFFFFE82EFDD700D04650D8A44DD0A7
:100058004550D8A44AD0260E0D6E000E0E6EA80E7E
:100068000F6E060E106E36503FEC07F01B6E1B50DD
:10007800116E126A2FEC05F0640E2618D8B426D03B
:10008800650E2618D8B422D0780E2618D8B41ED0FB
:10009800A50E016E000E026E6EEC0AF00150386E6D
:1000A800A50E3824D96EDA6A000EDA2226C0DFFFE0
:1000B8003850C00F376E260E056E000E066E37C01C
:1000C80007F0000E086E19EC08F00FD0FFFF640E61
:1000D8002618D8A404D0010E0001A26F06D0FFFF95
:1000E800650E2618D8B494EC0AF0FFFFF290FFFFD3
:1000F80025C0F5FF24C0F8FF23C0F7FF22C0F6FF94
:1001080021C0F4FF20C0F3FF1FC0DAFF1EC0D9FFD3
:100118001DC0EAFF1CC0E9FF47921100FFFF1BEF5B
:0201280009F0DC
:100600000001000A006400E8031027444945474FF1
:10061000205341524156494100496E696369616EF8
:10062000646F2E2E2E004F7472612076657A2E2E06
:100630002E00434F4E43454E54524553450052659C
:10064000696E696369616E646F005369672E206E1D
:100650006976656C00457363726962653A2000547F
:1006600065726D696E61646F00496E696369616E80
:10067000646F0047616E61646F2121005065726490
:1006800069737465006465206E7565766F004761F7
:100690006E61737465003834303130004A756567B7
:0F06A0006F00A1A1486173002563002569000068
:1006B000FFFFE1EC0AF076EC09F0CDEC0AF00B0E4E
:1006C0000001806F060E816F800E826F000E836FB7
:1006D00093EC07F0960E0001806F060E816FC00E3E
:1006E000826F000E836F93EC07F0080E00019B6F82
:1006F0009E0E9A6F4B0EFFFFE82EFDD79A2FFBD769
:100700009B2FF9D700D000F0F4EC0AF0320E000174
:10071000806F060E816F800E826F000E836F93ECE8
:1007200007F0190E0001806F060E816FC00E826FF8
:10073000000E836F93EC07F0080E00019B6F9E0E76
:100740009A6F4B0EFFFFE82EFDD79A2FFBD79B2FFA
:10075000F9D700D000F0F4EC0AF0000E3A6E0D0E5E
:10076000396E3BEC0BF0800E11EC0BF0FFFF000E2E
:100770000001A16FFFFF030EA16501D019D0FFFF9B
:10078000A1C09AF0010E9B6F9A2B03D0FFFFD89067
:100790009B37FFFF9A2FFAD700019B51FF0A8A6E01
:1007A000020EFFFFE82EFDD700D00001A12BE2D7FB
:1007B000FFFFA351D8A462D0000EA06F11D0FFFF9D
:1007C0000A0E936F000E59EC08F000019A6FAF0EFD
:1007D000A025D96EDA6A000EDA229AC0DFFFA02BBC
:1007E000FFFFA451020DB90EF324D96E000EF420C0
:1007F000DA6EA0519C6F9D6BDE509C5D9D51800A0E
:100800009E6FDE50800A9E59D8A0D9D7020EA41937
:10081000D8B402D0010E02D0FFFF000EFFFF9F6F81
:10082000AF0E806F000E816F800E826F9FC083F0CD
:1008300093EC07F00C0E00019B6F6C0E9A6FF20E9A
:10084000FFFFE82EFDD79A2FFBD79B2FF9D700D0BB
:1008500000F0F4EC0AF0550E0001806F060E816F77
:10086000800E826F000E836F93EC07F0C00E11ECC8
:100870000BF0000E466E010E0001A36FFFFFA251A8
:10088000D8B41ED0F4EC0AF0000E0001A36F010EE4
:10089000466EAF0E396E000E3A6EA50E3B6E000E20
:1008A0003C6E49EC09F00009D8B403D0E2EC06F044
:1008B00003D0FFFF74EC06F0FFFF000E0001A26FF3
:1008C000FFFF000E456E52D7FFFF890E00018E6FAD
:1008D000000E8F6FADD0FFFF250E9219D8B40AD04D
:1008E000FFFF85C0D9FF86C0DAFF92C0DFFF854BCE
:1008F000862B9ED0FFFF000E8C6F0CD0FFFF8EC0AA
:10090000D9FF8FC0DAFFDF50926F020E8E27000EE4
:100910008F23E6D7FFFF87C0F6FF88C0F7FF874B1E
:10092000882B0800FFFFF5CF92F09251000AD8B44F
:100930008DD0630AD8B4E2D7070AD8B403D00D0A21
:10094000D8A4CED7FFFF8EC0D9FF8FC0DAFFDECF8D
:1009500090F0DDCF91F0020E8E27000E8F2391AF25
:1009600006D0030E8C13906D911FD8B0912BFFFF12
:10097000010E926FFFFF9251020D010EF324F66EED
:10098000060EF420F76E0900FFFFF550905D090098
:10099000FFFFF5509159D8A005D0922B050E921962
:1009A000D8A4E8D7FFFF8CC08BF0030E8B17D8B408
:1009B00008D085C0D9FF86C0DAFF2D0EDF6E854BCB
:1009C000862BFFFF92C08DF02ED0FFFF8D51020DC0
:1009D000010EF324F66E060EF420F76E0900FFFFF9
:1009E000F5CF3BF00A00FFFFF5CF3CF090C039F0A7
:1009F00091C03AF08BEC08F039C080F03AC081F039
:100A0000000E0001836F0A0E826FF7EC09F00001FF
:100A10008051300F926F85C0D9FF86C0DAFF92C037
:100A2000DFFF854B862BFFFF8D078D29D8A4CDD7FF
:100A3000FFFF87C0F6FF88C0F7FF874B882B0800B1
:100A4000FFFFF5CF92F09251D8A445D7FFFF85C0A4
:100A5000D9FF86C0DAFF000EDF6E1200FFFFFFFF36
:100A6000110E166E000E176EACD0FFFF250E1A1871
:100A7000D8B40AD0FFFF0DC0D9FF0EC0DAFF1AC0EC
:100A8000DFFF0D4A0E2A9DD0FFFF000E146E0CD022
:100A9000FFFF16C0D9FF17C0DAFFDF501A6E020E33
:100AA0001626000E1722E6D7FFFF0FC0F6FF10C074
:100AB000F7FF0F4A102A0800FFFFF5CF1AF01A506F
:100AC000000AD8B48CD0630AD8B4E2D7070AD8B4E5
:100AD00003D00D0AD8A4CED7FFFF16C0D9FF17C088
:100AE000DAFFDECF18F0DDCF19F0020E1626000E69
:100AF000172219AE06D0030E1412186C191ED8B0A6
:100B0000192AFFFF010E1A6EFFFF050E1A18D8B43E
:100B100014D01A50020D010EF324F66E060EF420C6
:100B2000F76E0900FFFFF550185C0900FFFFF55054
:100B30001958D8A002D01A2AE7D7FFFF14C013F023
:100B4000030E1316D8B408D00DC0D9FF0EC0DAFFBB
:100B50002D0EDF6E0D4A0E2AFFFF1AC015F02CD0A5
:100B6000FFFF1550020D010EF324F66E060EF42061
:100B7000F76E0900FFFFF5CF03F00A00FFFFF5CF86
:100B800004F018C001F019C002F0EBEC08F001C04D
:100B900008F002C009F0000E0B6E0A0E0A6E20EC7F
:100BA0000AF00850300F1A6E0DC0D9FF0EC0DAFFE0
:100BB0001AC0DFFF0D4A0E2AFFFF15061528D8A41C
:100BC000CFD7FFFF0FC0F6FF10C0F7FF0F4A102A64
:100BD0000800FFFFF5CF1AF01A50D8A446D7FFFF40
:100BE0000DC0D9FF0EC0DAFF000EDF6E1200FFFF4E
:100BF000FFFFF4EC0AF0A20E0001806F060E816F79
:100C0000800E826F000E836F93EC07F0730E00016D
:100C1000806F060E816FC00E826F000E836F93ECA3
:100C200007F0B9EC0AF0080E0001856F9E0E846F84
:100C30004B0EFFFFE82EFDD7842FFBD7852FF9D76A
:100C400000D000F0F4EC0AF09C0E0001806F060E5C
:100C5000816F800E826F000E836F93EC07F05F0E42
:100C60000001806F060E816FC00E826F000E836FD1
:100C700093EC07F0080E0001856F9E0E846F4B0EFB
:100C8000FFFFE82EFDD7842FFBD7852FF9D700D0A3
:100C900000F0F4EC0AF0690E0001806F060E816F1F
:100CA000800E826F000E836F93EC07F0850E0001BB
:100CB000806F060E816FC00E826F000E836F93EC03
:100CC00007F0140E0001856F0A0E846F3F0EFFFFC0
:100CD000E82EFDD7842FFBD7852FF9D700D000F061
:100CE000F4EC0AF01200FFFFFFFF7C0E0001806FA2
:100CF000060E816F800E826F000E836F93EC07F0FB
:100D0000040E0001856FCF0E846FA50EFFFFE82E45
:100D1000FDD7842FFBD7852FF9D700F0F4EC0AF02C
:100D2000AF0E0001806F000E816F800E826F000E8B
:100D3000836F93EC07F0A50E0001806F000E816FAA
:100D4000C00E826F000E836F93EC07F00C0E000153
:100D5000856F6C0E846FF20EFFFFE82EFDD7842F97
:100D6000FBD7852FF9D700D000F0F4EC0AF03E0E47
:100D70000001806F060E816F800E826F000E836F00
:100D800093EC07F09C0E0001806F060E816FC00E81
:100D9000826F000E836F93EC07F00C0E0001856FDD
:100DA0006C0E846FF20EFFFFE82EFDD7842FFBD769
:100DB000852FF9D700D000F0B9EC0AF0F4EC0AF076
:100DC0001200FFFFFFFF8E0E0001806F060E816F85
:100DD000800E826F000E836F93EC07F0080E000107
:100DE000876F9E0E866F4B0EFFFFE82EFDD7862F76
:100DF000FBD7872FF9D700D000F0030E44600DD049
:100E0000260E0001806F060E816F800E826F000E2D
:100E1000836F93EC07F0442A17D0FFFF010E446E56
:100E20000001A42B030EA419D8A403D0F8EC05F0FC
:100E300023D0FFFF4A0E806F060E816F800E826FF7
:100E4000000E836F93EC07F0FFFFA50E396E000EC6
:100E50003A6ECEEC09F0080E0001876F9E0E866F89
:100E60004B0EFFFFE82EFDD7862FFBD7872FF9D734
:100E700000D000F0F4EC0AF0FFFF1200FFFFFFFFCC
:100E8000016E27D0FFFF310E4BD0FFFF320E48D04E
:100E9000FFFF330E45D0FFFF340E42D0FFFF350E6B
:100EA0003FD0FFFF360E3CD0FFFF370E39D0FFFF9B
:100EB000380E36D0FFFF390E33D0FFFF300E30D062
:100EC000FFFF640E2DD0FFFF650E2AD0FFFF780EC6
:100ED00027D0FFFF0150770AD8B4F2D7090AD8B457
:100EE000F2D7C50AD8B4E6D7060AD8B4DAD7030AC7
:100EF000D8B4CED7690AD8B4E0D70C0AD8B4D7D7BB
:100F0000060AD8B4CBD7030AD8B4BFD7350AD8B4A9
:100F1000CBD7060AD8B4BFD7030AD8B4B3D7D6D72D
:100F2000FFFF1200FFFFFFFF00018251D8B403D082
:100F3000825111EC0BF0FFFF000E3F6E24D0FFFF3B
:100F40003F50000180253D6E000E81213E6E3DC068
:100F5000F6FF3EC0F7FFF86A050EF76404D00800FC
:100F6000FFFFF55005D0F6CFE9FFF7CFEAFFEF50CE
:100F700003EC0BF000018351D8B403D0200E03EC36
:100F80000BF0FFFF3F2AFFFF80C039F081C03AF02D
:100F900048EC0AF03F503D6E3E6A39503D5C3A5095
:100FA0003E58D8B01200FFFFCAD7FFFFFFFF000E68
:100FB00000018D6F89AF06D0886D891FD8B0892B4D
:100FC000010E8D6FFFFF8BAF04D08A6D8B1FD8B0E1
:100FD0008B2BFFFF8A518B11D8B41CD0010E8C6F64
:100FE00005D0FFFFD8908A378B378C2BFFFF8BAF54
:100FF000F8D7FFFF8A51885D8B518959D8A004D05A
:101000008A51885F8B51895BFFFFD8908B338A337D
:101010008C2FEFD7FFFF8D51D8B404D0886D891F76
:10102000D8B0892BFFFF88C088F089C089F01200F2
:10103000FFFFFFFF0750D8B403D007501FEC0BF0A1
:10104000FFFF000E0B6E22D0FFFF0B500524096E30
:10105000000E06200A6E09C0F6FF0AC0F7FFF86A04
:10106000050EF76404D00800FFFFF55005D0F6CF59
:10107000E9FFF7CFEAFFEF502DEC0BF00850D8B4A2
:1010800003D0200E2DEC0BF0FFFF0B2AFFFF05C055
:1010900001F006C002F06EEC0AF00B50096E0A6A0D
:1010A0000150095C02500A58D8B01200FFFFCCD79B
:1010B000FFFFFFFF0001986FA2EC09F03DC088F030
:1010C0003EC089F00001985193C094F0956B945FF5
:1010D000000E955B010E94258A6F000E95218B6F93
:1010E000D6EC07F0000198518825966F000E8921F3
:1010F000976F990E856F000E866FAB0E876F060E89
:10110000886F96C089F097C08AF064EC04F0000103
:1011100099511200FFFFFFFF000E3E6E000E3D6E64
:101120003B503C10D8B420D0010E3F6E05D0FFFFDD
:10113000D8903B363C363F2AFFFF3CAEF8D7FFFF46
:10114000D8903D363E363B50395C3C503A58D8A09A
:1011500005D03B50395E3C503A5A3D80FFFFD89055
:101160003C323B323F2EEBD7FFFF3DC039F03EC053
:101170003AF01200FFFFFFFF000E396E000E3A6ECC
:10118000000E3B6E000E3C6EFFFF000180A108D0F8
:101190008451392685513A2286513B2287513C227F
:1011A000FFFFD8908437853786378737D8908333C9
:1011B0008233813380338051811182118311D8A40D
:1011C000E3D739C080F03AC081F03BC082F03CC028
:1011D00083F01200FFFFFFFF000E066E000E056E8B
:1011E00003500410D8B420D0010E076E05D0FFFFC5
:1011F000D89003360436072AFFFF04AEF8D7FFFF66
:10120000D890053606360350015C04500258D8A029
:1012100005D00350015E0450025A0580FFFFD890AC
:1012200004320332072EEBD7FFFF05C001F006C0E2
:1012300002F01200FFFF8E0EF66E160EF76E000E15
:10124000F86E00EEB9F010EE06F00900F5CFEEFFF3
:10125000E550E150FAE1880EF66E160EF76E000EBC
:10126000F86E00EE40F010EE06F00900F5CFEEFF4C
:10127000E550E150FAE100EEA2F0170EEE6AE80642
:10128000FDE1466A47904792000EF86E000158EF64
:1012900003F0FFFF0001A451020DB90EF324D96E33
:1012A000000EF420DA6EDF50806F000E816F15D0D3
:1012B000FFFF81513924D96E000E3A20DA6E815138
:1012C0003B24E16E000E3C20E26EDE50E618D8B4FE
:1012D00002D0000E08D0FFFF812BFFFF8051815DFF
:1012E000D8A0E6D7010EFFFF1200FFFFFFFF140E8C
:1012F0003A6E7D0EFFFFE82EFDD73A2EFBD700D0C9
:10130000300E11EC0BF0050E3A6EDF0EFFFFE82EEB
:10131000FDD73A2EFBD7300E11EC0BF03C0E11EC42
:101320000BF00C0E11EC0BF0010E11EC0BF0140E87
:101330003A6E7D0EFFFFE82EFDD73A2EFBD700D088
:101340001200FFFFFFFF40C080F041C081F042C0AB
:1013500082F043C083F06D0E0001846F4E0E856FE6
:10136000C60E866F410E876FBBEC08F080C040F060
:1013700081C041F082C042F083C043F0390E402664
:10138000300E4122000E4222000E4322FF0E421474
:101390003D6E7F0E43143E6E1200FFFFFFFF000103
:1013A000A451020DB90EF324D96E000EF420DA6EAA
:1013B000DF503D6E000E3E6E12D0FFFF3E50020D1C
:1013C000F3CF3BF0F4CF3CF03B503924D96E3C5086
:1013D0003A20DA6E000EDE6E000EDD6E3E2AFFFF52
:1013E0003D503E5CD8B01200FFFFE7D7FFFFFFFF84
:1013F000000182518311D8B41CD0010E846F05D036
:10140000FFFFD89082378337842BFFFF83AFF8D755
:10141000FFFF8251805D83518159D8A004D0825151
:10142000805F8351815BFFFFD89083338233842FA9
:10143000EFD7FFFF80C080F081C081F01200FFFF76
:10144000FFFF0A500B10D8B41CD0010E0C6E05D053
:10145000FFFFD8900A360B360C2AFFFF0BAEF8D7E9
:10146000FFFF0A50085C0B500958D8A004D00A505E
:10147000085E0B50095AFFFFD8900B320A320C2E2F
:10148000EFD7FFFF08C008F009C009F01200FFFF06
:10149000FFFF39C03BF03AC03CF003D0FFFF3B4AAE
:1014A0003C2AFFFF3BC0F6FF3CC0F7FFF86A050E81
:1014B000F76404D00800FFFFF55005D0F6CFE9FF30
:1014C000F7CFEAFFEF500009D8A4E8D739503B5CCA
:1014D000396E3A503C583A6E1200FFFFFFFF01C0D0
:1014E00003F002C004F003D0FFFF034A042AFFFF09
:1014F00003C0F6FF04C0F7FFF86A050EF76404D0D6
:101500000800FFFFF55005D0F6CFE9FFF7CFEAFF5F
:10151000EF500009D8A4E8D70150035C016E0250D7
:101520000458026E1200FFFFFFFFA50E016E000EB1
:10153000026E6EEC0AF0A40E0124D96E000E022099
:10154000DA6E000EDF6EA50E056E000E066EC00E82
:10155000076E000E086E19EC08F05D0E056E060EA3
:10156000066E000E076E000E086E19EC08F01200F1
:10157000FFFFFFFF010E446E000E0001A46FA50ED9
:10158000396E000E3A6ECEEC09F0AF0E396E000ED9
:101590003A6ECEEC09F01200FFFFFFFFC80EF26EAC
:1015A000010EF16ED09E190EAF6E200E9D6E100EC4
:1015B0009E6E200E9F6E260EAC6E900EAB6E1200CD
:1015C000FFFFFFFFF00E936E800E946E000E956E7F
:1015D0008A68000E8B6E000E8C6E8168000E826E23
:1015E000000E836E1200FFFFFFFF010E11EC0BF0E7
:1015F000620E3A6E760EFFFFE82EFDD73A2EFBD72D
:1016000000D01200FFFFFFFF396E8B968B8839C028
:101610008CFF8B86190EFFFFE82EFDD78B961200EC
:10162000FFFFFFFF396E8B968B9839C08CFF8B863E
:10163000190EFFFFE82EFDD78B961200FFFFFFFF6C
:10164000016E8B968B9801C08CFF8B86190EFFFF65
:10165000E82EFDD78B961200FFFFFFFF016E8B96E1
:101660008B8801C08CFF8B86190EFFFFE82EFDD7FB
:101670008B961200FFFFFFFF39C040F03AC041F0E7
:10168000426A436A1200FFFF0100000001010400EA
:0616900006000A00FFFF46
:020000040020DA
:08000000FFFFFFFFFFFFFFFF00
:020000040030CA
:0E000000FF210C0EFF0181FF0FC00FE00F402B
:00000001FF
