:020000040000FA
:0600000000F05EEF00F0CD
:10000800FFFF3382E9CF0AF0EACF0BF0D9CF0CF02B
:10001800DACF0DF0F6CF0EF0F7CF0FF0F8CF10F0E3
:10002800F5CF11F09EAA32D0AECF12F06F0E121893
:10003800D8B424D0740E1218D8B420D0620E121876
:10004800D8B41CD01250AEEC07F0D8B007D03C0E94
:10005800056E060E066EBFEC06F016D0FFFFCB0E3F
:10006800016E010E026E36EC07F0CB0E0124D96E3C
:10007800010E0220DA6E12C0DFFF06D0FFFF010E6C
:100088000101CA6F12C0C9F1FFFF9E9AFFFF11C09C
:10009800F5FF10C0F8FF0FC0F7FF0EC0F6FF0DC048
:1000A800DAFF0CC0D9FF0BC0EAFF0AC0E9FF3392A0
:0800B8001100FFFF5CEF07F0EF
:100600000001000A006400E8031027456C207661B1
:100610006C6F72206465206C612073656E69616C1B
:10062000206465626520657374617220656E747202
:100630006520302079203130300A0D00536F6C6F07
:100640002070756564657320656E76696172206ED1
:10065000756D65726F730A0D004C61206F70636970
:100660006F6E206E6F2065732076616C6964610A1D
:100670000D00416D6261732073656E69616C657315
:100680003A2062200A0D0053656E69616C20313A90
:10069000206F200A0D0053656E69616C20323A208C
:1006A00074200A0D00467265713A32392E346B4857
:1006B0007A004355323A25692525202000435531DB
:1006C0003A25692525200000FFFFC0EC07F08AECE1
:1006D00007F0CFEC07F06AEC06F0870E176E060EF7
:1006E000186E96EC06F0960E176E060E186E96ECC7
:1006F00006F0720E176E060E186E96EC06F0840E5B
:10070000176E060E186E96EC06F0CFC120F0216A27
:10071000C5EC05F0CEC120F0216A89EC05F0A50EEC
:10072000176E060E186E800E196E01EC06F0000EA4
:10073000256E010E266EBD0E276E060E286ECFC1E9
:1007400029F02A6A61EC04F0000E176E010E186E93
:10075000C00E196E01EC06F0320E256E010E266EEB
:10076000B20E276E060E286ECEC129F02A6A61EC01
:1007700004F0320E176E010E186E000E196E01ECA9
:1007800006F0FFFF0101CA51D8B4FBD7CB0E196E9A
:10079000010E1A6E18EC05F01ABE3DD01A5004E195
:1007A000650E195CD8A037D00B0E176E060E186EAA
:1007B00096EC06F072D0FFFFCB0E196E010E1A6E8A
:1007C00018EC05F019500101CF6F32D0FFFFCB0EAE
:1007D000196E010E1A6E18EC05F010D0FFFFCB0E4B
:1007E000196E010E1A6E18EC05F019500101CF6F49
:1007F000CB0E196E010E1A6E18EC05F0FFFF1950A2
:100800000101CE6F15D0FFFF590E176E060E186E40
:1008100096EC06F00DD0FFFF0101C951620AD8B471
:10082000DDD70D0AD8B4C7D71B0AD8B4CFD7EBD7BA
:10083000FFFFCFC120F0216AC5EC05F0CEC120F04A
:10084000216A89EC05F0640E256E010E266EBD0E40
:10085000276E060E286ECFC129F02A6A61EC04F0DB
:10086000640E176E010E186EC00E196E01EC06F0C4
:10087000960E256E010E266EB20E276E060E286E9F
:10088000CEC129F02A6A61EC04F0960E176E010EB3
:10089000186E000E196E01EC06F0FFFF000E01014C
:1008A000C86FFFFFCB0EC825D96EDA6A010EDA22B7
:1008B000000EDF6EC82B020EC865F3D7000ECA6F9C
:1008C00060D7FFFF290E2C6E000E2D6E9AD0FFFF11
:1008D000250E3218D8B40AD0FFFF25C0D9FF26C094
:1008E000DAFF32C0DFFF254A262A8BD0FFFF000E39
:1008F0002E6E27C0F6FF28C0F7FF274A282A0800D7
:10090000FFFFF5CF32F03250000AD8B488D0640A25
:10091000D8B403D00D0AD8A4DFD7FFFF2CC0D9FF6D
:100920002DC0DAFFDECF30F0DDCF31F0020E2C2605
:10093000000E2D2231AE06D0030E2E12306C311E69
:10094000D8B0312AFFFF010E326EFFFF3250020D88
:10095000010EF324F66E060EF420F76E0900FFFF79
:10096000F550305C0900FFFFF5503158D8A005D094
:10097000322A050E3218D8A4E8D7FFFF2EC02BF07C
:10098000030E2B16D8B408D025C0D9FF26C0DAFF35
:100990002D0EDF6E254A262AFFFF32C02FF02CD005
:1009A000FFFF2F50020D010EF324F66E060EF42009
:1009B000F76E0900FFFFF5CF1BF00A00FFFFF5CF30
:1009C0001CF030C019F031C01AF03AEC06F019C032
:1009D00020F01AC021F0000E236E0A0E226EE8EC01
:1009E00006F02050300F326E25C0D9FF26C0DAFF46
:1009F00032C0DFFF254A262AFFFF2F062F28D8A462
:100A0000CFD7FFFF27C0F6FF28C0F7FF274A282AC5
:100A10000800FFFFF5CF32F03250D8A458D7FFFFBF
:100A200025C0D9FF26C0DAFF000EDF6E1200FFFFDF
:100A3000FFFF03D0FFFF194A1A2AFFFF19C0D9FF91
:100A40001AC0DAFF200EDE18D8B4F4D719C0D9FFC7
:100A50001AC0DAFF090EDE18D8B4ECD7000E1F6EEC
:100A6000000E1E6E000E1D6E19C0D9FF1AC0DAFFEF
:100A70002D0EDE18D8A402D01D2A09D0FFFF19C000
:100A8000D9FF1AC0DAFF2B0EDE18D8A420D0FFFF42
:100A9000194A1A2A1CD0FFFF1EC013F01FC014F001
:100AA000000E166E0A0E156E75EC07F019C0D9FF10
:100AB0001AC0DAFFDF501B6E1B501326000E1422E3
:100AC000D00E13241E6EFF0E14201F6EE0D7FFFF02
:100AD00019C0D9FF1AC0DAFFDF509CEC07F0D8B07C
:100AE000DAD71D50D8B40DD01EC01BF01FC01CF0AB
:100AF0001B1E1C1E1B4A1C2A1BC019F01CC01AF00E
:100B000005D0FFFF1EC019F01FC01AF0FFFF120032
:100B1000FFFFFFFF20C013F021C014F0000E166E7F
:100B2000880E156E75EC07F013C019F014C01AF09A
:100B3000000E1C6E640E1B6E3AEC06F019C024F019
:100B40001AC025F024C022F025C023F0D89023320B
:100B50002232D890233222322250BB6E24C022F09F
:100B600025C023F0223A233AF00E231622500F0B11
:100B70002312F00E2216300E2214246E256ACF0E98
:100B8000BA162450BA121200FFFFFFFF20C013F064
:100B900021C014F0000E166E880E156E75EC07F06D
:100BA00013C019F014C01AF0000E1C6E640E1B6EF8
:100BB0003AEC06F019C024F01AC025F024C022F047
:100BC00025C023F0D89023322232D890233222320B
:100BD0002250BE6E24C022F025C023F0223A233AD0
:100BE000F00E231622500F0B2312F00E2216300E99
:100BF0002214246E256ACF0EBD162450BD12120099
:100C0000FFFFFFFF1950D8B403D01950ECEC07F0E8
:100C1000FFFF000E1C6E1BD0FFFF1C5017241A6E26
:100C2000000E18201B6E1AC0F6FF1BC0F7FFF86AF3
:100C3000050EF76404D00800FFFFF55005D0F6CF8D
:100C4000E9FFF7CFEAFFEF50DEEC07F01C2AFFFFC9
:100C500017C013F018C014F010EC07F01C501A6EF7
:100C60001B6A13501A5C14501B58D8B01200FFFFB7
:100C7000D3D7FFFFFFFF000E1E6E000E1D6E1B5030
:100C80001C10D8B420D0010E1F6E05D0FFFFD890E5
:100C90001B361C361F2AFFFF1CAEF8D7FFFFD8906B
:100CA0001D361E361B50195C1C501A58D8A005D092
:100CB0001B50195E1C501A5A1D80FFFFD8901C3221
:100CC0001B321F2EEBD7FFFF1DC019F01EC01AF0FC
:100CD0001200FFFFFFFF140E146E7D0EFFFFE82EC3
:100CE000FDD7142EFBD700D0300EECEC07F0050E2C
:100CF000146EDF0EFFFFE82EFDD7142EFBD7300E4B
:100D0000ECEC07F03C0EECEC07F00C0EECEC07F012
:100D1000010EECEC07F0140E146E7D0EFFFFE82EB2
:100D2000FDD7142EFBD700D01200FFFFFFFF000EEF
:100D30001B6E12D0FFFFACA2FDD71B501724196EFB
:100D4000000E18201A6E19C0F6FF1AC0F7FF08002F
:100D5000FFFFF5CFADFF1B2AFFFF17C013F018C030
:100D600014F010EC07F01B50196E1A6A1350195C3E
:100D700014501A58D8B01200FFFFDCD7FFFFFFFF56
:100D8000000E096E12D0FFFFACA2FDD7095005245A
:100D9000076E000E0620086E07C0F6FF08C0F7FFBA
:100DA0000800FFFFF5CFADFF092AFFFF05C001F0E6
:100DB00006C002F036EC07F00950076E086A0150D1
:100DC000075C02500858D8B01200FFFFDCD7FFFFC5
:100DD000FFFF22502310D8B41CD0010E246E05D082
:100DE000FFFFD89022362336242AFFFF23AEF8D700
:100DF000FFFF2250205C23502158D8A004D022505D
:100E0000205E2350215AFFFFD89023322232242E15
:100E1000EFD7FFFF20C020F021C021F01200FFFF1C
:100E2000FFFF13C015F014C016F003D0FFFF154AE2
:100E3000162AFFFF15C0F6FF16C0F7FFF86A050E69
:100E4000F76404D00800FFFFF55005D0F6CFE9FFA6
:100E5000F7CFEAFFEF500009D8A4E8D71350155C8C
:100E6000136E14501658146E1200FFFFFFFF01C0DE
:100E700003F002C004F003D0FFFF034A042AFFFF7F
:100E800003C0F6FF04C0F7FFF86A050EF76404D04C
:100E90000800FFFFF55005D0F6CFE9FFF7CFEAFFD6
:100EA000EF500009D8A4E8D70150035C016E02504E
:100EB0000458026E1200FFFFF40EF66E0F0EF76E6E
:100EC000000EF86E0900F5CFCEF10900F5CFCFF195
:100ED0000101CD6BCC6BCB6BCA6BC96B339033927A
:100EE000000EF86E000164EF03F0FFFF13501502CF
:100EF000F3CF17F0F4CF18F013501602F350182662
:100F000014501502F350182617C013F018C014F02F
:100F10001200FFFFFFFFC00EF26ED09E190EAF6EE3
:100F2000200E9D6E100E9E6E200E9F6E260EAC6ED5
:100F3000900EAB6E1200FFFFFFFF156E000E146ED9
:100F40003A0E156005D02F0E156402D0010E146EF6
:100F5000FFFF14C013F013301200FFFFFFFF026EFB
:100F6000000E036E3A0E026005D02F0E026402D00E
:100F7000010E036EFFFF03C001F001301200FFFFFE
:100F8000FFFF800E946E000E956E000E8B6E000EAD
:100F90008C6E000E826E000E836E1200FFFFFFFF4C
:100FA0001C0EBD6E1C0EBA6E210ECB6E530EBE6EA5
:100FB000530EBB6E040ECA6E1200FFFFFFFF136ECE
:100FC0008B968B8813C08CFF8B86190EFFFFE82E43
:100FD000FDD78B961200FFFFFFFF136E8B968B9849
:100FE00013C08CFF8B86190EFFFFE82EFDD78B9662
:080FF0001200FFFF194BFFFF87
:020000040020DA
:08000000FFFFFFFFFFFFFFFF00
:020000040030CA
:0E000000FF210C0EFF0181FF0FC00FE00F402B
:00000001FF
