:020000040000FA
:0600000000F05EEF00F0CD
:10000800FFFF3382E9CF0AF0EACF0BF0D9CF0CF02B
:10001800DACF0DF0F6CF0EF0F7CF0FF0F8CF10F0E3
:10002800F5CF11F09EAA32D0AECF12F06F0E121893
:10003800D8B424D0740E1218D8B420D0620E121876
:10004800D8B41CD0125085EC07F0D8B007D03C0EBD
:10005800056E060E066E96EC06F016D0FFFFE70E4C
:10006800016E000E026E0DEC07F0E70E0124D96E4A
:10007800000E0220DA6E12C0DFFF06D0FFFF010E6D
:100088000001E66F12C0E5F0FFFF9E9AFFFF11C066
:10009800F5FF10C0F8FF0FC0F7FF0EC0F6FF0DC048
:1000A800DAFF0CC0D9FF0BC0EAFF0AC0E9FF3392A0
:0800B8001100FFFF33EF07F018
:100600000001000A006400E8031027456C207661B1
:100610006C6F72206465206C612073656E69616C1B
:10062000206465626520657374617220656E747202
:100630006520302079203130300A0D00536F6C6F07
:100640002070756564657320656E76696172206ED1
:10065000756D65726F730A0D004C61206F70636970
:100660006F6E206E6F2065732076616C6964610A1D
:100670000D00416D6261732073656E69616C657315
:100680003A2062200A0D0053656E69616C20313A90
:10069000206F200A0D0053656E69616C20323A208C
:1006A00074200A0D00467265713A32392E346B4857
:1006B0007A004355323A25692525202000435531DB
:1006C0003A25692525200000FFFF97EC07F061EC33
:1006D00007F0A6EC07F041EC06F0870E176E060E49
:1006E000186E6DEC06F0960E176E060E186E6DEC19
:1006F00006F0720E176E060E186E6DEC06F0840E84
:10070000176E060E186E6DEC06F0EBC020F0216A35
:100710009CEC05F0EAC020F0216A60EC05F0A50E23
:10072000176E060E186E800E196ED8EC05F0FFFFDE
:100730000001E651D8B470D0E70E196E000E1A6EA3
:10074000EFEC04F01ABE3DD01A5004E1650E195CBE
:10075000D8A037D00B0E176E060E186E6DEC06F093
:1007600048D0FFFFE70E196E000E1A6EEFEC04F092
:1007700019500001EB6F32D0FFFFE70E196E000E2B
:100780001A6EEFEC04F010D0FFFFE70E196E000EAA
:100790001A6EEFEC04F019500001EB6FE70E196EC2
:1007A000000E1A6EEFEC04F0FFFF19500001EA6F23
:1007B00015D0FFFF590E176E060E186E6DEC06F081
:1007C0000DD0FFFF0001E551620AD8B4DDD70D0A54
:1007D000D8B4C7D71B0AD8B4CFD7EBD7FFFFEBC02D
:1007E00020F0216A9CEC05F0EAC020F0216A60EC60
:1007F00005F0FFFF000E0001E46FFFFFE70EE425A8
:10080000D96EDA6A000EDA22000EDF6EE42B020ED9
:10081000E465F3D7000EE66FFFFF800E256E000E35
:10082000266EBD0E276E060E286EEBC029F02A6AD2
:1008300038EC04F0800E176E000E186EC00E196EA4
:10084000D8EC05F0B20E256E000E266EB20E276EA5
:10085000060E286EEAC029F02A6A38EC04F0B20EBF
:10086000176E000E186E000E196ED8EC05F05FD7EB
:10087000FFFF290E2C6E000E2D6E9AD0FFFF250E65
:100880003218D8B40AD0FFFF25C0D9FF26C0DAFF3E
:1008900032C0DFFF254A262A8BD0FFFF000E2E6EC6
:1008A00027C0F6FF28C0F7FF274A282A0800FFFFC5
:1008B000F5CF32F03250000AD8B488D0640AD8B4E8
:1008C00003D00D0AD8A4DFD7FFFF2CC0D9FF2DC05D
:1008D000DAFFDECF30F0DDCF31F0020E2C26000E35
:1008E0002D2231AE06D0030E2E12306C311ED8B040
:1008F000312AFFFF010E326EFFFF3250020D010E52
:10090000F324F66E060EF420F76E0900FFFFF55093
:10091000305C0900FFFFF5503158D8A005D0322ACD
:10092000050E3218D8A4E8D7FFFF2EC02BF0030E17
:100930002B16D8B408D025C0D9FF26C0DAFF2D0E5B
:10094000DF6E254A262AFFFF32C02FF02CD0FFFF92
:100950002F50020D010EF324F66E060EF420F76EF2
:100960000900FFFFF5CF1BF00A00FFFFF5CF1CF0D9
:1009700030C019F031C01AF011EC06F019C020F0A7
:100980001AC021F0000E236E0A0E226EBFEC06F094
:100990002050300F326E25C0D9FF26C0DAFF32C09A
:1009A000DFFF254A262AFFFF2F062F28D8A4CFD7FE
:1009B000FFFF27C0F6FF28C0F7FF274A282A0800B4
:1009C000FFFFF5CF32F03250D8A458D7FFFF25C033
:1009D000D9FF26C0DAFF000EDF6E1200FFFFFFFF17
:1009E00003D0FFFF194A1A2AFFFF19C0D9FF1AC006
:1009F000DAFF200EDE18D8B4F4D719C0D9FF1AC018
:100A0000DAFF090EDE18D8B4ECD7000E1F6E000E08
:100A10001E6E000E1D6E19C0D9FF1AC0DAFF2D0E12
:100A2000DE18D8A402D01D2A09D0FFFF19C0D9FFB3
:100A30001AC0DAFF2B0EDE18D8A420D0FFFF194A07
:100A40001A2A1CD0FFFF1EC013F01FC014F0000EA6
:100A5000166E0A0E156E4CEC07F019C0D9FF1AC0BD
:100A6000DAFFDF501B6E1B501326000E1422D00E2F
:100A700013241E6EFF0E14201F6EE0D7FFFF19C057
:100A8000D9FF1AC0DAFFDF5073EC07F0D8B0DAD71D
:100A90001D50D8B40DD01EC01BF01FC01CF01B1E73
:100AA0001C1E1B4A1C2A1BC019F01CC01AF005D0C2
:100AB000FFFF1EC019F01FC01AF0FFFF1200FFFF5A
:100AC000FFFF20C013F021C014F0000E166E880E38
:100AD000156E4CEC07F013C019F014C01AF0000E9C
:100AE0001C6E640E1B6E11EC06F019C024F01AC0C7
:100AF00025F024C022F025C023F0D89023322232E2
:100B0000D890233222322250BB6E24C022F025C05E
:100B100023F0223A233AF00E231622500F0B231211
:100B2000F00E2216300E2214246E256ACF0EBA164D
:100B30002450BA121200FFFFFFFF20C013F021C0A3
:100B400014F0000E166E880E156E4CEC07F013C0F4
:100B500019F014C01AF0000E1C6E640E1B6E11EC1E
:100B600006F019C024F01AC025F024C022F025C0D8
:100B700023F0D89023322232D890233222322250CE
:100B8000BE6E24C022F025C023F0223A233AF00E94
:100B9000231622500F0B2312F00E2216300E2214B1
:100BA000246E256ACF0EBD162450BD121200FFFF21
:100BB000FFFF1950D8B403D01950C3EC07F0FFFF62
:100BC000000E1C6E1BD0FFFF1C5017241A6E000E67
:100BD00018201B6E1AC0F6FF1BC0F7FFF86A050E3F
:100BE000F76404D00800FFFFF55005D0F6CFE9FF09
:100BF000F7CFEAFFEF50B5EC07F01C2AFFFF17C054
:100C000013F018C014F0E7EC06F01C501A6E1B6AC3
:100C100013501A5C14501B58D8B01200FFFFD3D7E2
:100C2000FFFFFFFF000E1E6E000E1D6E1B501C10FE
:100C3000D8B420D0010E1F6E05D0FFFFD8901B3610
:100C40001C361F2AFFFF1CAEF8D7FFFFD8901D36B9
:100C50001E361B50195C1C501A58D8A005D01B50CA
:100C6000195E1C501A5A1D80FFFFD8901C321B328F
:100C70001F2EEBD7FFFF1DC019F01EC01AF0120087
:100C8000FFFFFFFF140E146E7D0EFFFFE82EFDD751
:100C9000142EFBD700D0300EC3EC07F0050E146EF7
:100CA000DF0EFFFFE82EFDD7142EFBD7300EC3EC6E
:100CB00007F03C0EC3EC07F00C0EC3EC07F0010E7E
:100CC000C3EC07F0140E146E7D0EFFFFE82EFDD767
:100CD000142EFBD700D01200FFFFFFFF000E1B6E8B
:100CE00012D0FFFFACA2FDD71B501724196E000EC7
:100CF00018201A6E19C0F6FF1AC0F7FF0800FFFF90
:100D0000F5CFADFF1B2AFFFF17C013F018C014F07A
:100D1000E7EC06F01B50196E1A6A1350195C145058
:100D20001A58D8B01200FFFFDCD7FFFFFFFF000EFC
:100D3000096E12D0FFFFACA2FDD709500524076E43
:100D4000000E0620086E07C0F6FF08C0F7FF080077
:100D5000FFFFF5CFADFF092AFFFF05C001F006C078
:100D600002F00DEC07F00950076E086A0150075CAD
:100D700002500858D8B01200FFFFDCD7FFFFFFFF7A
:100D800022502310D8B41CD0010E246E05D0FFFFD2
:100D9000D89022362336242AFFFF23AEF8D7FFFF50
:100DA0002250205C23502158D8A004D02250205E2D
:100DB0002350215AFFFFD89023322232242EEFD71E
:100DC000FFFF20C020F021C021F01200FFFFFFFF35
:100DD00013C015F014C016F003D0FFFF154A162AF1
:100DE000FFFF15C0F6FF16C0F7FFF86A050EF7649F
:100DF00004D00800FFFFF55005D0F6CFE9FFF7CF8C
:100E0000EAFFEF500009D8A4E8D71350155C136E21
:100E100014501658146E1200FFFFFFFF01C003F0BC
:100E200002C004F003D0FFFF034A042AFFFF03C0FF
:100E3000F6FF04C0F7FFF86A050EF76404D0080057
:100E4000FFFFF55005D0F6CFE9FFF7CFEAFFEF50EF
:100E50000009D8A4E8D70150035C016E0250045881
:100E6000026E1200FFFFA20EF66E0F0EF76E000E5E
:100E7000F86E0900F5CFEAF00900F5CFEBF00001BC
:100E8000E96BE86BE76BE66BE56B33903392000E32
:100E9000F86E000164EF03F0FFFF13501502F3CF6B
:100EA00017F0F4CF18F013501602F3501826145010
:100EB0001502F350182617C013F018C014F01200D2
:100EC000FFFFFFFFC00EF26ED09E190EAF6E200E18
:100ED0009D6E100E9E6E200E9F6E260EAC6E900EB6
:100EE000AB6E1200FFFFFFFF156E000E146E3A0E80
:100EF000156005D02F0E156402D0010E146EFFFF91
:100F000014C013F013301200FFFFFFFF026E000E3B
:100F1000036E3A0E026005D02F0E026402D0010E5D
:100F2000036EFFFF03C001F001301200FFFFFFFF5F
:100F3000800E946E000E956E000E8B6E000E8C6E01
:100F4000000E826E000E836E1200FFFFFFFF1C0E6C
:100F5000BD6E1C0EBA6E210ECB6E530EBE6E530EBE
:100F6000BB6E040ECA6E1200FFFFFFFF136E8B965E
:100F70008B8813C08CFF8B86190EFFFFE82EFDD7E0
:100F80008B961200FFFFFFFF136E8B968B9813C09A
:100F90008CFF8B86190EFFFFE82EFDD78B96120073
:060FA000FFFF194BFFFFEB
:020000040020DA
:08000000FFFFFFFFFFFFFFFF00
:020000040030CA
:0E000000FF210C0EFF0181FF0FC00FE00F402B
:00000001FF
